{
  "contractName": "TestContract",
  "abi": [
    {
      "constant": true,
      "inputs": [
        {
          "internalType": "address",
          "name": "userAddress",
          "type": "address"
        }
      ],
      "name": "getBalances",
      "outputs": [
        {
          "internalType": "uint256",
          "name": "",
          "type": "uint256"
        }
      ],
      "payable": false,
      "stateMutability": "view",
      "type": "function"
    }
  ],
  "bytecode": "0x6080604052736b175474e89094c44da98b954eedeac495271d0f6000806101000a81548173ffffffffffffffffffffffffffffffffffffffff021916908373ffffffffffffffffffffffffffffffffffffffff1602179055506000809054906101000a900473ffffffffffffffffffffffffffffffffffffffff16600160006101000a81548173ffffffffffffffffffffffffffffffffffffffff021916908373ffffffffffffffffffffffffffffffffffffffff1602179055503480156100c657600080fd5b506101a5806100d66000396000f3fe608060405234801561001057600080fd5b506004361061002b5760003560e01c8063c84aae1714610030575b600080fd5b6100726004803603602081101561004657600080fd5b81019080803573ffffffffffffffffffffffffffffffffffffffff169060200190929190505050610088565b6040518082815260200191505060405180910390f35b600080600160009054906101000a900473ffffffffffffffffffffffffffffffffffffffff1673ffffffffffffffffffffffffffffffffffffffff166370a08231846040518263ffffffff1660e01b8152600401808273ffffffffffffffffffffffffffffffffffffffff1673ffffffffffffffffffffffffffffffffffffffff16815260200191505060206040518083038186803b15801561012a57600080fd5b505afa15801561013e573d6000803e3d6000fd5b505050506040513d602081101561015457600080fd5b810190808051906020019092919050505090508091505091905056fea265627a7a723158209e56163fb27d338d5b886ef16462a6ec2c7a9991592bc8ac2610f9d7915bc32c64736f6c63430005100032",
  "source": "pragma solidity ^0.5.16;\r\n\r\nimport {IERC20} from \"./dependencies/OpenZeppelin/IERC20.sol\";\r\n\r\ncontract TestContract {\r\n    address daiAddress = 0x6B175474E89094C44Da98b954EedeAC495271d0F;\r\n    IERC20 dai = IERC20(daiAddress);\r\n\r\n    function getBalances(address userAddress) external view returns (uint) {\r\n        uint result = dai.balanceOf(userAddress);\r\n\r\n        return (result);\r\n    }\r\n}",
  "sourcePath": "/mnt/c/Users/alora/OneDrive/Documents/GitHub/Yield-Aggregator/src/contracts/Test.sol",
  "compiler": {
    "name": "solc",
    "version": "0.5.16+commit.9c3226ce.Emscripten.clang"
  },
  "schemaVersion": "3.4.1",
  "updatedAt": "2021-09-19T23:38:41.073Z",
  "devdoc": {
    "methods": {}
  },
  "userdoc": {
    "methods": {}
  }
}