{
  "contractName": "YieldAggregator",
  "abi": [
    {
      "anonymous": false,
      "inputs": [
        {
          "indexed": false,
          "internalType": "uint256",
          "name": "id",
          "type": "uint256"
        },
        {
          "indexed": false,
          "internalType": "address",
          "name": "user",
          "type": "address"
        },
        {
          "indexed": false,
          "internalType": "address",
          "name": "token",
          "type": "address"
        },
        {
          "indexed": false,
          "internalType": "uint256",
          "name": "amount",
          "type": "uint256"
        },
        {
          "indexed": false,
          "internalType": "uint256",
          "name": "timestamp",
          "type": "uint256"
        }
      ],
      "name": "Deposited",
      "type": "event"
    },
    {
      "anonymous": false,
      "inputs": [
        {
          "indexed": false,
          "internalType": "uint256",
          "name": "id",
          "type": "uint256"
        },
        {
          "indexed": false,
          "internalType": "address",
          "name": "user",
          "type": "address"
        },
        {
          "indexed": false,
          "internalType": "address",
          "name": "token",
          "type": "address"
        },
        {
          "indexed": false,
          "internalType": "uint256",
          "name": "amount",
          "type": "uint256"
        },
        {
          "indexed": false,
          "internalType": "uint256",
          "name": "gain",
          "type": "uint256"
        },
        {
          "indexed": false,
          "internalType": "uint256",
          "name": "timestamp",
          "type": "uint256"
        }
      ],
      "name": "Withdrawn",
      "type": "event"
    },
    {
      "constant": true,
      "inputs": [
        {
          "internalType": "address",
          "name": "",
          "type": "address"
        }
      ],
      "name": "daiTokens",
      "outputs": [
        {
          "internalType": "uint256",
          "name": "",
          "type": "uint256"
        }
      ],
      "payable": false,
      "stateMutability": "view",
      "type": "function"
    },
    {
      "constant": true,
      "inputs": [],
      "name": "depositCount",
      "outputs": [
        {
          "internalType": "uint256",
          "name": "",
          "type": "uint256"
        }
      ],
      "payable": false,
      "stateMutability": "view",
      "type": "function"
    },
    {
      "constant": true,
      "inputs": [
        {
          "internalType": "uint256",
          "name": "",
          "type": "uint256"
        }
      ],
      "name": "depositWithdrawn",
      "outputs": [
        {
          "internalType": "bool",
          "name": "",
          "type": "bool"
        }
      ],
      "payable": false,
      "stateMutability": "view",
      "type": "function"
    },
    {
      "constant": true,
      "inputs": [
        {
          "internalType": "uint256",
          "name": "",
          "type": "uint256"
        }
      ],
      "name": "deposits",
      "outputs": [
        {
          "internalType": "uint256",
          "name": "id",
          "type": "uint256"
        },
        {
          "internalType": "address",
          "name": "user",
          "type": "address"
        },
        {
          "internalType": "address",
          "name": "token",
          "type": "address"
        },
        {
          "internalType": "uint256",
          "name": "amount",
          "type": "uint256"
        },
        {
          "internalType": "uint256",
          "name": "gain",
          "type": "uint256"
        },
        {
          "internalType": "uint256",
          "name": "timestamp",
          "type": "uint256"
        }
      ],
      "payable": false,
      "stateMutability": "view",
      "type": "function"
    },
    {
      "constant": false,
      "inputs": [
        {
          "internalType": "uint256",
          "name": "_amount",
          "type": "uint256"
        }
      ],
      "name": "deposit",
      "outputs": [
        {
          "internalType": "bool",
          "name": "",
          "type": "bool"
        }
      ],
      "payable": false,
      "stateMutability": "nonpayable",
      "type": "function"
    },
    {
      "constant": false,
      "inputs": [],
      "name": "rebalance",
      "outputs": [],
      "payable": false,
      "stateMutability": "nonpayable",
      "type": "function"
    },
    {
      "constant": false,
      "inputs": [
        {
          "internalType": "uint256",
          "name": "_id",
          "type": "uint256"
        }
      ],
      "name": "withdraw",
      "outputs": [],
      "payable": false,
      "stateMutability": "nonpayable",
      "type": "function"
    },
    {
      "constant": false,
      "inputs": [
        {
          "internalType": "uint256",
          "name": "_amount",
          "type": "uint256"
        }
      ],
      "name": "depositToCompound",
      "outputs": [
        {
          "internalType": "bool",
          "name": "",
          "type": "bool"
        }
      ],
      "payable": false,
      "stateMutability": "nonpayable",
      "type": "function"
    },
    {
      "constant": false,
      "inputs": [
        {
          "internalType": "uint256",
          "name": "_numTokensToWithdraw",
          "type": "uint256"
        },
        {
          "internalType": "bool",
          "name": "redeemType",
          "type": "bool"
        }
      ],
      "name": "withdrawFromCompound",
      "outputs": [
        {
          "internalType": "bool",
          "name": "",
          "type": "bool"
        }
      ],
      "payable": false,
      "stateMutability": "nonpayable",
      "type": "function"
    }
  ],
  "bytecode": "0x6080604052736b175474e89094c44da98b954eedeac495271d0f6000806101000a81548173ffffffffffffffffffffffffffffffffffffffff021916908373ffffffffffffffffffffffffffffffffffffffff160217905550735d3a536e4d6dbd6114cc1ead35777bab948e3643600160006101000a81548173ffffffffffffffffffffffffffffffffffffffff021916908373ffffffffffffffffffffffffffffffffffffffff160217905550737d2768de32b0b80b7a3454c06bdac94a69ddc7a9600260006101000a81548173ffffffffffffffffffffffffffffffffffffffff021916908373ffffffffffffffffffffffffffffffffffffffff16021790555073fc1e690f61efd961294b3e1ce3313fbd8aa4f85d600360006101000a81548173ffffffffffffffffffffffffffffffffffffffff021916908373ffffffffffffffffffffffffffffffffffffffff1602179055506000809054906101000a900473ffffffffffffffffffffffffffffffffffffffff16600460006101000a81548173ffffffffffffffffffffffffffffffffffffffff021916908373ffffffffffffffffffffffffffffffffffffffff160217905550600160009054906101000a900473ffffffffffffffffffffffffffffffffffffffff16600560006101000a81548173ffffffffffffffffffffffffffffffffffffffff021916908373ffffffffffffffffffffffffffffffffffffffff160217905550600260009054906101000a900473ffffffffffffffffffffffffffffffffffffffff16600660006101000a81548173ffffffffffffffffffffffffffffffffffffffff021916908373ffffffffffffffffffffffffffffffffffffffff160217905550600360009054906101000a900473ffffffffffffffffffffffffffffffffffffffff16600760006101000a81548173ffffffffffffffffffffffffffffffffffffffff021916908373ffffffffffffffffffffffffffffffffffffffff1602179055503480156102ee57600080fd5b50611881806102fe6000396000f3fe608060405234801561001057600080fd5b50600436106100935760003560e01c80636b27cc1a116100665780636b27cc1a146101825780637d7c2a1c146101c8578063b02c43d0146101d2578063b6b55f251461028f578063d174f2ac146102d557610093565b8063013ac2c5146100985780632dfdf0b5146100f05780632e1a7d4d1461010e578063300c09821461013c575b600080fd5b6100da600480360360208110156100ae57600080fd5b81019080803573ffffffffffffffffffffffffffffffffffffffff169060200190929190505050610327565b6040518082815260200191505060405180910390f35b6100f861033f565b6040518082815260200191505060405180910390f35b61013a6004803603602081101561012457600080fd5b8101908080359060200190929190505050610345565b005b6101686004803603602081101561015257600080fd5b8101908080359060200190929190505050610aef565b604051808215151515815260200191505060405180910390f35b6101ae6004803603602081101561019857600080fd5b8101908080359060200190929190505050610cb6565b604051808215151515815260200191505060405180910390f35b6101d0610cd6565b005b6101fe600480360360208110156101e857600080fd5b8101908080359060200190929190505050610cd8565b604051808781526020018673ffffffffffffffffffffffffffffffffffffffff1673ffffffffffffffffffffffffffffffffffffffff1681526020018573ffffffffffffffffffffffffffffffffffffffff1673ffffffffffffffffffffffffffffffffffffffff168152602001848152602001838152602001828152602001965050505050505060405180910390f35b6102bb600480360360208110156102a557600080fd5b8101908080359060200190929190505050610d54565b604051808215151515815260200191505060405180910390f35b61030d600480360360408110156102eb57600080fd5b8101908080359060200190929190803515159060200190929190505050611300565b604051808215151515815260200191505060405180910390f35b60096020528060005260406000206000915090505481565b600b5481565b60006008600083815260200190815260200160002090506000600560009054906101000a900473ffffffffffffffffffffffffffffffffffffffff1673ffffffffffffffffffffffffffffffffffffffff166370a08231306040518263ffffffff1660e01b8152600401808273ffffffffffffffffffffffffffffffffffffffff1673ffffffffffffffffffffffffffffffffffffffff16815260200191505060206040518083038186803b1580156103fd57600080fd5b505afa158015610411573d6000803e3d6000fd5b505050506040513d602081101561042757600080fd5b810190808051906020019092919050505090506000600760009054906101000a900473ffffffffffffffffffffffffffffffffffffffff1673ffffffffffffffffffffffffffffffffffffffff166370a08231306040518263ffffffff1660e01b8152600401808273ffffffffffffffffffffffffffffffffffffffff1673ffffffffffffffffffffffffffffffffffffffff16815260200191505060206040518083038186803b1580156104db57600080fd5b505afa1580156104ef573d6000803e3d6000fd5b505050506040513d602081101561050557600080fd5b81019080805190602001909291905050509050600660009054906101000a900473ffffffffffffffffffffffffffffffffffffffff1673ffffffffffffffffffffffffffffffffffffffff166369328dec6000809054906101000a900473ffffffffffffffffffffffffffffffffffffffff168560030154306040518463ffffffff1660e01b8152600401808473ffffffffffffffffffffffffffffffffffffffff1673ffffffffffffffffffffffffffffffffffffffff1681526020018381526020018273ffffffffffffffffffffffffffffffffffffffff1673ffffffffffffffffffffffffffffffffffffffff1681526020019350505050602060405180830381600087803b15801561061a57600080fd5b505af115801561062e573d6000803e3d6000fd5b505050506040513d602081101561064457600080fd5b8101908080519060200190929190505050506000600460009054906101000a900473ffffffffffffffffffffffffffffffffffffffff1673ffffffffffffffffffffffffffffffffffffffff166370a08231306040518263ffffffff1660e01b8152600401808273ffffffffffffffffffffffffffffffffffffffff1673ffffffffffffffffffffffffffffffffffffffff16815260200191505060206040518083038186803b1580156106f757600080fd5b505afa15801561070b573d6000803e3d6000fd5b505050506040513d602081101561072157600080fd5b81019080805190602001909291905050509050600061074d85600301548361148590919063ffffffff16565b90508085600401819055506107aa81600960003373ffffffffffffffffffffffffffffffffffffffff1673ffffffffffffffffffffffffffffffffffffffff168152602001908152602001600020546114cf90919063ffffffff16565b600960003373ffffffffffffffffffffffffffffffffffffffff1673ffffffffffffffffffffffffffffffffffffffff168152602001908152602001600020819055506000600960003373ffffffffffffffffffffffffffffffffffffffff1673ffffffffffffffffffffffffffffffffffffffff168152602001908152602001600020549050600460009054906101000a900473ffffffffffffffffffffffffffffffffffffffff1673ffffffffffffffffffffffffffffffffffffffff1663a9059cbb8760010160009054906101000a900473ffffffffffffffffffffffffffffffffffffffff16836040518363ffffffff1660e01b8152600401808373ffffffffffffffffffffffffffffffffffffffff1673ffffffffffffffffffffffffffffffffffffffff16815260200182815260200192505050602060405180830381600087803b1580156108fe57600080fd5b505af1158015610912573d6000803e3d6000fd5b505050506040513d602081101561092857600080fd5b8101908080519060200190929190505050506109908660030154600960003373ffffffffffffffffffffffffffffffffffffffff1673ffffffffffffffffffffffffffffffffffffffff1681526020019081526020016000205461148590919063ffffffff16565b600960003373ffffffffffffffffffffffffffffffffffffffff1673ffffffffffffffffffffffffffffffffffffffff168152602001908152602001600020819055506001600a60008860000154815260200190815260200160002060006101000a81548160ff0219169083151502179055507f0154f717e0222046b9a7127b7bc6b098ebb086c5b335538799d67ddc54c62be78660000154338860020160009054906101000a900473ffffffffffffffffffffffffffffffffffffffff1689600301548642604051808781526020018673ffffffffffffffffffffffffffffffffffffffff1673ffffffffffffffffffffffffffffffffffffffff1681526020018573ffffffffffffffffffffffffffffffffffffffff1673ffffffffffffffffffffffffffffffffffffffff168152602001848152602001838152602001828152602001965050505050505060405180910390a150505050505050565b6000600460009054906101000a900473ffffffffffffffffffffffffffffffffffffffff1673ffffffffffffffffffffffffffffffffffffffff1663095ea7b3600160009054906101000a900473ffffffffffffffffffffffffffffffffffffffff16846040518363ffffffff1660e01b8152600401808373ffffffffffffffffffffffffffffffffffffffff1673ffffffffffffffffffffffffffffffffffffffff16815260200182815260200192505050602060405180830381600087803b158015610bbc57600080fd5b505af1158015610bd0573d6000803e3d6000fd5b505050506040513d6020811015610be657600080fd5b8101908080519060200190929190505050506000600560009054906101000a900473ffffffffffffffffffffffffffffffffffffffff1673ffffffffffffffffffffffffffffffffffffffff1663a0712d68846040518263ffffffff1660e01b815260040180828152602001915050602060405180830381600087803b158015610c6f57600080fd5b505af1158015610c83573d6000803e3d6000fd5b505050506040513d6020811015610c9957600080fd5b810190808051906020019092919050505090506001915050919050565b600a6020528060005260406000206000915054906101000a900460ff1681565b565b60086020528060005260406000206000915090508060000154908060010160009054906101000a900473ffffffffffffffffffffffffffffffffffffffff16908060020160009054906101000a900473ffffffffffffffffffffffffffffffffffffffff16908060030154908060040154908060050154905086565b6000610d6c6001600b546114cf90919063ffffffff16565b600b819055506040518060c00160405280600b5481526020013373ffffffffffffffffffffffffffffffffffffffff168152602001600160009054906101000a900473ffffffffffffffffffffffffffffffffffffffff1673ffffffffffffffffffffffffffffffffffffffff168152602001838152602001600081526020014281525060086000600b5481526020019081526020016000206000820151816000015560208201518160010160006101000a81548173ffffffffffffffffffffffffffffffffffffffff021916908373ffffffffffffffffffffffffffffffffffffffff16021790555060408201518160020160006101000a81548173ffffffffffffffffffffffffffffffffffffffff021916908373ffffffffffffffffffffffffffffffffffffffff160217905550606082015181600301556080820151816004015560a08201518160050155905050600460009054906101000a900473ffffffffffffffffffffffffffffffffffffffff1673ffffffffffffffffffffffffffffffffffffffff166323b872dd3330856040518463ffffffff1660e01b8152600401808473ffffffffffffffffffffffffffffffffffffffff1673ffffffffffffffffffffffffffffffffffffffff1681526020018373ffffffffffffffffffffffffffffffffffffffff1673ffffffffffffffffffffffffffffffffffffffff1681526020018281526020019350505050602060405180830381600087803b158015610f9b57600080fd5b505af1158015610faf573d6000803e3d6000fd5b505050506040513d6020811015610fc557600080fd5b81019080805190602001909291905050505061102982600960003373ffffffffffffffffffffffffffffffffffffffff1673ffffffffffffffffffffffffffffffffffffffff168152602001908152602001600020546114cf90919063ffffffff16565b600960003373ffffffffffffffffffffffffffffffffffffffff1673ffffffffffffffffffffffffffffffffffffffff168152602001908152602001600020819055506000600560009054906101000a900473ffffffffffffffffffffffffffffffffffffffff1673ffffffffffffffffffffffffffffffffffffffff1663bd6d894d6040518163ffffffff1660e01b8152600401602060405180830381600087803b1580156110d857600080fd5b505af11580156110ec573d6000803e3d6000fd5b505050506040513d602081101561110257600080fd5b810190808051906020019092919050505090506000600660009054906101000a900473ffffffffffffffffffffffffffffffffffffffff1673ffffffffffffffffffffffffffffffffffffffff1663d15e00536000809054906101000a900473ffffffffffffffffffffffffffffffffffffffff166040518263ffffffff1660e01b8152600401808273ffffffffffffffffffffffffffffffffffffffff1673ffffffffffffffffffffffffffffffffffffffff16815260200191505060206040518083038186803b1580156111d757600080fd5b505afa1580156111eb573d6000803e3d6000fd5b505050506040513d602081101561120157600080fd5b81019080805190602001909291905050509050600061121f85611557565b90507fefd7bb4f992963087670aa168590baee24d227ff5c18ae3790ef7ec22bde6274600b5433600260009054906101000a900473ffffffffffffffffffffffffffffffffffffffff168842604051808681526020018573ffffffffffffffffffffffffffffffffffffffff1673ffffffffffffffffffffffffffffffffffffffff1681526020018473ffffffffffffffffffffffffffffffffffffffff1673ffffffffffffffffffffffffffffffffffffffff1681526020018381526020018281526020019550505050505060405180910390a160019350505050919050565b6000806001151583151514156113c757600560009054906101000a900473ffffffffffffffffffffffffffffffffffffffff1673ffffffffffffffffffffffffffffffffffffffff1663db006a75856040518263ffffffff1660e01b815260040180828152602001915050602060405180830381600087803b15801561138557600080fd5b505af1158015611399573d6000803e3d6000fd5b505050506040513d60208110156113af57600080fd5b8101908080519060200190929190505050905061147a565b600560009054906101000a900473ffffffffffffffffffffffffffffffffffffffff1673ffffffffffffffffffffffffffffffffffffffff1663852a12e3856040518263ffffffff1660e01b815260040180828152602001915050602060405180830381600087803b15801561143c57600080fd5b505af1158015611450573d6000803e3d6000fd5b505050506040513d602081101561146657600080fd5b810190808051906020019092919050505090505b600191505092915050565b60006114c783836040518060400160405280601e81526020017f536166654d6174683a207375627472616374696f6e206f766572666c6f77000081525061178c565b905092915050565b60008082840190508381101561154d576040517f08c379a000000000000000000000000000000000000000000000000000000000815260040180806020018281038252601b8152602001807f536166654d6174683a206164646974696f6e206f766572666c6f77000000000081525060200191505060405180910390fd5b8091505092915050565b6000600460009054906101000a900473ffffffffffffffffffffffffffffffffffffffff1673ffffffffffffffffffffffffffffffffffffffff1663095ea7b3600260009054906101000a900473ffffffffffffffffffffffffffffffffffffffff16846040518363ffffffff1660e01b8152600401808373ffffffffffffffffffffffffffffffffffffffff1673ffffffffffffffffffffffffffffffffffffffff16815260200182815260200192505050602060405180830381600087803b15801561162457600080fd5b505af1158015611638573d6000803e3d6000fd5b505050506040513d602081101561164e57600080fd5b810190808051906020019092919050505050600660009054906101000a900473ffffffffffffffffffffffffffffffffffffffff1673ffffffffffffffffffffffffffffffffffffffff1663e8eda9df6000809054906101000a900473ffffffffffffffffffffffffffffffffffffffff16843060006040518563ffffffff1660e01b8152600401808573ffffffffffffffffffffffffffffffffffffffff1673ffffffffffffffffffffffffffffffffffffffff1681526020018481526020018373ffffffffffffffffffffffffffffffffffffffff1673ffffffffffffffffffffffffffffffffffffffff1681526020018261ffff168152602001945050505050600060405180830381600087803b15801561176b57600080fd5b505af115801561177f573d6000803e3d6000fd5b5050505060019050919050565b6000838311158290611839576040517f08c379a00000000000000000000000000000000000000000000000000000000081526004018080602001828103825283818151815260200191508051906020019080838360005b838110156117fe5780820151818401526020810190506117e3565b50505050905090810190601f16801561182b5780820380516001836020036101000a031916815260200191505b509250505060405180910390fd5b506000838503905080915050939250505056fea265627a7a7231582010e3e64397c5944c5a8b698bddf9df775a3175ee66590302d90387ff697efe1b64736f6c63430005100032",
  "source": "pragma solidity ^0.5.16;\r\n\r\nimport {IERC20} from \"./dependencies/OpenZeppelin/IERC20.sol\";\r\nimport {cDAI} from \"./dependencies/cDAI.sol\"; \r\nimport {ILendingPool} from \"./dependencies/AAVE/ILendingPool.sol\";\r\n//import {ILendingPoolAddressesProvider} from \"./dependencies/AAVE/ILendingPoolAddressesProvider\";\r\nimport \"./dependencies/OpenZeppelin/SafeMath.sol\";\r\nimport \"./dependencies/Compound.sol\";\r\n\r\n\r\ncontract YieldAggregator {\r\n    using SafeMath for uint;\r\n    \r\n    //Smart Contract Integrations (DAI, cDAI-Compound, AAVE)\r\n    address DAIAddress = 0x6B175474E89094C44Da98b954EedeAC495271d0F;\r\n    address cDAIAddress = 0x5d3a536E4D6DbD6114cc1Ead35777bAB948E3643;\r\n    address AAVEAddress = 0x7d2768dE32b0b80b7a3454c06BdAc94A69DDc7A9;\r\n    address aDAIAddress = 0xfC1E690f61EFd961294b3e1Ce3313fBD8aa4f85d;\r\n    IERC20 DAI = IERC20(DAIAddress);\r\n    cDAI Compound = cDAI(cDAIAddress);\r\n    ILendingPool AAVE = ILendingPool(AAVEAddress);\r\n    IERC20 aDAI = IERC20(aDAIAddress);\r\n\r\n    //Public Mappings and Counts\r\n    mapping(uint256 => _Deposit) public deposits;\r\n    mapping(address => uint256) public daiTokens;\r\n    mapping(uint256 => bool) public depositWithdrawn;\r\n    uint256 public depositCount;\r\n\r\n    //Contract Events\r\n    event Deposited(\r\n        uint256 id,\r\n        address user,\r\n        address token,\r\n        uint256 amount,\r\n        uint256 timestamp\r\n    );\r\n\r\n    event Withdrawn(\r\n        uint256 id,\r\n        address user,\r\n        address token,\r\n        uint256 amount,\r\n        uint256 gain,\r\n        uint256 timestamp\r\n    );\r\n    \r\n    //Contract Structs\r\n    struct _Deposit {\r\n        uint256 id;\r\n        address user;\r\n        address token;\r\n        uint256 amount;\r\n        uint256 gain;\r\n        uint256 timestamp;\r\n    }\r\n\r\n    //Contract Functions\r\n    function deposit(uint _amount) public returns (bool) {\r\n                \r\n        //Create new Deposit and transfer the funds from the user account to the Smart Contract\r\n        depositCount = depositCount.add(1);\r\n        deposits[depositCount] = _Deposit(depositCount, msg.sender, cDAIAddress, _amount, 0, now);\r\n        DAI.transferFrom(msg.sender, address(this), _amount);\r\n        \r\n        //Add amount deposited to the daiToken tracker for each user\r\n        daiTokens[msg.sender] = daiTokens[msg.sender].add(_amount);\r\n\r\n        //Get Compound and AAVE Rates\r\n        uint cDaiRate = Compound.exchangeRateCurrent();\r\n        uint aaveDaiRate = AAVE.getReserveNormalizedIncome(DAIAddress);\r\n\r\n        //Deposit to Compound\r\n        //bool deposited = depositToCompound(_amount);\r\n        bool AAVEDeposited = depositToAAVE(_amount);\r\n\r\n        //Emit deposit event\r\n        emit Deposited(depositCount, msg.sender, AAVEAddress, _amount, now);\r\n        return true;\r\n        \r\n    }\r\n\r\n    function rebalance() public {\r\n        // Insert Code here\r\n    }\r\n\r\n    function withdraw(uint256 _id) public {\r\n\r\n        //Get initial deposit amount and current user balance\r\n        _Deposit storage _deposit = deposits[_id];\r\n        \r\n        //Get current cDAI locked in Compound by this contract\r\n        uint256 cDaiAmount = Compound.balanceOf(address(this));\r\n        uint256 aDaiAmount = aDAI.balanceOf(address(this));\r\n        \r\n        //Withdraw from contract\r\n        //withdrawFromCompound(cDaiAmount, true);\r\n        //withdrawFromAAVE(aDaiAmount);\r\n        AAVE.withdraw(DAIAddress, _deposit.amount, address(this));\r\n\r\n        uint256 daiAmount = DAI.balanceOf(address(this));\r\n\r\n        //Calculate gains while locked in contract\r\n        uint256 gain = daiAmount.sub(_deposit.amount);\r\n        _deposit.gain = gain;\r\n        daiTokens[msg.sender] = daiTokens[msg.sender].add(gain);\r\n        \r\n        //Get latest amount after gains added\r\n        uint256 userBalance = daiTokens[msg.sender];\r\n        //Transfer back to original account (principal plus gains)\r\n        DAI.transfer(_deposit.user, userBalance);\r\n\r\n        //Update trackers to account for funds withdrawn  \r\n        daiTokens[msg.sender] = daiTokens[msg.sender].sub(_deposit.amount);\r\n        depositWithdrawn[_deposit.id] = true;\r\n\r\n        //Emit withdrawn event\r\n        emit Withdrawn(_deposit.id, msg.sender, _deposit.token, _deposit.amount, gain, now);\r\n        \r\n        //Add in any gains from different rebalance\r\n\r\n        //With draw funds from Compound or Aave\r\n        //withdrawFromCompound(userBalance, false);\r\n\r\n    }\r\n\r\n    function depositToAAVE(uint256 _amount) private returns (bool) {\r\n        DAI.approve(AAVEAddress, _amount);\r\n        AAVE.deposit(DAIAddress, _amount, address(this), 0);\r\n\r\n        return true;\r\n    }\r\n\r\n    function withdrawFromAAVE(uint256 _amount) private returns (bool) {\r\n        AAVE.withdraw(DAIAddress, _amount, address(this));\r\n\r\n        return true;\r\n    }\r\n\r\n    function depositToCompound(uint256 _amount) public returns (bool) {       \r\n        //Mint cTokens\r\n        DAI.approve(cDAIAddress, _amount);\r\n        uint mintResult = Compound.mint(_amount);\r\n\r\n        return true;\r\n    }\r\n\r\n    function withdrawFromCompound(uint256 _numTokensToWithdraw, bool redeemType) public returns (bool) {\r\n        uint256 redeemResult;\r\n\r\n        if (redeemType == true){\r\n            //Retrieve DAI deposited\r\n            redeemResult = Compound.redeem(_numTokensToWithdraw);\r\n        }\r\n        else\r\n        {\r\n            redeemResult = Compound.redeemUnderlying(_numTokensToWithdraw);\r\n        }\r\n\r\n        return true;\r\n    }\r\n}",
  "sourcePath": "/mnt/c/Users/alora/OneDrive/Documents/GitHub/Yield-Aggregator/src/contracts/YieldAggregator.sol",
  "compiler": {
    "name": "solc",
    "version": "0.5.16+commit.9c3226ce.Emscripten.clang"
  },
  "schemaVersion": "3.4.1",
  "updatedAt": "2021-09-23T06:47:23.825Z",
  "devdoc": {
    "methods": {}
  },
  "userdoc": {
    "methods": {}
  }
}