{
  "contractName": "YieldAggregator",
  "abi": [
    {
      "anonymous": false,
      "inputs": [
        {
          "indexed": false,
          "internalType": "uint256",
          "name": "id",
          "type": "uint256"
        },
        {
          "indexed": false,
          "internalType": "address",
          "name": "user",
          "type": "address"
        },
        {
          "indexed": false,
          "internalType": "address",
          "name": "token",
          "type": "address"
        },
        {
          "indexed": false,
          "internalType": "uint256",
          "name": "amount",
          "type": "uint256"
        },
        {
          "indexed": false,
          "internalType": "uint256",
          "name": "timestamp",
          "type": "uint256"
        }
      ],
      "name": "Deposited",
      "type": "event"
    },
    {
      "anonymous": false,
      "inputs": [
        {
          "indexed": false,
          "internalType": "uint256",
          "name": "id",
          "type": "uint256"
        },
        {
          "indexed": false,
          "internalType": "address",
          "name": "user",
          "type": "address"
        },
        {
          "indexed": false,
          "internalType": "address",
          "name": "token",
          "type": "address"
        },
        {
          "indexed": false,
          "internalType": "uint256",
          "name": "amount",
          "type": "uint256"
        },
        {
          "indexed": false,
          "internalType": "uint256",
          "name": "gain",
          "type": "uint256"
        },
        {
          "indexed": false,
          "internalType": "uint256",
          "name": "timestamp",
          "type": "uint256"
        }
      ],
      "name": "Withdrawn",
      "type": "event"
    },
    {
      "constant": true,
      "inputs": [
        {
          "internalType": "address",
          "name": "",
          "type": "address"
        }
      ],
      "name": "daiTokens",
      "outputs": [
        {
          "internalType": "uint256",
          "name": "",
          "type": "uint256"
        }
      ],
      "payable": false,
      "stateMutability": "view",
      "type": "function"
    },
    {
      "constant": true,
      "inputs": [],
      "name": "depositCount",
      "outputs": [
        {
          "internalType": "uint256",
          "name": "",
          "type": "uint256"
        }
      ],
      "payable": false,
      "stateMutability": "view",
      "type": "function"
    },
    {
      "constant": true,
      "inputs": [
        {
          "internalType": "uint256",
          "name": "",
          "type": "uint256"
        }
      ],
      "name": "depositWithdrawn",
      "outputs": [
        {
          "internalType": "bool",
          "name": "",
          "type": "bool"
        }
      ],
      "payable": false,
      "stateMutability": "view",
      "type": "function"
    },
    {
      "constant": true,
      "inputs": [
        {
          "internalType": "uint256",
          "name": "",
          "type": "uint256"
        }
      ],
      "name": "deposits",
      "outputs": [
        {
          "internalType": "uint256",
          "name": "id",
          "type": "uint256"
        },
        {
          "internalType": "address",
          "name": "user",
          "type": "address"
        },
        {
          "internalType": "address",
          "name": "token",
          "type": "address"
        },
        {
          "internalType": "uint256",
          "name": "amount",
          "type": "uint256"
        },
        {
          "internalType": "uint256",
          "name": "gain",
          "type": "uint256"
        },
        {
          "internalType": "uint256",
          "name": "timestamp",
          "type": "uint256"
        }
      ],
      "payable": false,
      "stateMutability": "view",
      "type": "function"
    },
    {
      "constant": false,
      "inputs": [
        {
          "internalType": "uint256",
          "name": "_amount",
          "type": "uint256"
        }
      ],
      "name": "deposit",
      "outputs": [
        {
          "internalType": "bool",
          "name": "",
          "type": "bool"
        }
      ],
      "payable": false,
      "stateMutability": "nonpayable",
      "type": "function"
    },
    {
      "constant": false,
      "inputs": [],
      "name": "rebalance",
      "outputs": [],
      "payable": false,
      "stateMutability": "nonpayable",
      "type": "function"
    },
    {
      "constant": false,
      "inputs": [
        {
          "internalType": "uint256",
          "name": "_id",
          "type": "uint256"
        }
      ],
      "name": "withdraw",
      "outputs": [],
      "payable": false,
      "stateMutability": "nonpayable",
      "type": "function"
    },
    {
      "constant": false,
      "inputs": [
        {
          "internalType": "uint256",
          "name": "_amount",
          "type": "uint256"
        }
      ],
      "name": "depositToCompound",
      "outputs": [
        {
          "internalType": "uint256",
          "name": "",
          "type": "uint256"
        }
      ],
      "payable": false,
      "stateMutability": "nonpayable",
      "type": "function"
    },
    {
      "constant": false,
      "inputs": [
        {
          "internalType": "uint256",
          "name": "_numTokensToWithdraw",
          "type": "uint256"
        },
        {
          "internalType": "bool",
          "name": "redeemType",
          "type": "bool"
        }
      ],
      "name": "withdrawFromCompound",
      "outputs": [
        {
          "internalType": "bool",
          "name": "",
          "type": "bool"
        }
      ],
      "payable": false,
      "stateMutability": "nonpayable",
      "type": "function"
    }
  ],
  "bytecode": "0x6080604052736b175474e89094c44da98b954eedeac495271d0f600460006101000a81548173ffffffffffffffffffffffffffffffffffffffff021916908373ffffffffffffffffffffffffffffffffffffffff160217905550735d3a536e4d6dbd6114cc1ead35777bab948e3643600560006101000a81548173ffffffffffffffffffffffffffffffffffffffff021916908373ffffffffffffffffffffffffffffffffffffffff160217905550600460009054906101000a900473ffffffffffffffffffffffffffffffffffffffff16600660006101000a81548173ffffffffffffffffffffffffffffffffffffffff021916908373ffffffffffffffffffffffffffffffffffffffff160217905550600560009054906101000a900473ffffffffffffffffffffffffffffffffffffffff16600760006101000a81548173ffffffffffffffffffffffffffffffffffffffff021916908373ffffffffffffffffffffffffffffffffffffffff16021790555034801561018057600080fd5b5061128a806101906000396000f3fe608060405234801561001057600080fd5b50600436106100935760003560e01c80636b27cc1a116100665780636b27cc1a1461017e5780637d7c2a1c146101c4578063b02c43d0146101ce578063b6b55f251461028b578063d174f2ac146102d157610093565b8063013ac2c5146100985780632dfdf0b5146100f05780632e1a7d4d1461010e578063300c09821461013c575b600080fd5b6100da600480360360208110156100ae57600080fd5b81019080803573ffffffffffffffffffffffffffffffffffffffff169060200190929190505050610323565b6040518082815260200191505060405180910390f35b6100f861033b565b6040518082815260200191505060405180910390f35b61013a6004803603602081101561012457600080fd5b8101908080359060200190929190505050610341565b005b6101686004803603602081101561015257600080fd5b81019080803590602001909291905050506108d9565b6040518082815260200191505060405180910390f35b6101aa6004803603602081101561019457600080fd5b8101908080359060200190929190505050610a9f565b604051808215151515815260200191505060405180910390f35b6101cc610abf565b005b6101fa600480360360208110156101e457600080fd5b8101908080359060200190929190505050610ac1565b604051808781526020018673ffffffffffffffffffffffffffffffffffffffff1673ffffffffffffffffffffffffffffffffffffffff1681526020018573ffffffffffffffffffffffffffffffffffffffff1673ffffffffffffffffffffffffffffffffffffffff168152602001848152602001838152602001828152602001965050505050505060405180910390f35b6102b7600480360360208110156102a157600080fd5b8101908080359060200190929190505050610b3d565b604051808215151515815260200191505060405180910390f35b610309600480360360408110156102e757600080fd5b8101908080359060200190929190803515159060200190929190505050610f3e565b604051808215151515815260200191505060405180910390f35b60016020528060005260406000206000915090505481565b60035481565b600080600083815260200190815260200160002090506000600760009054906101000a900473ffffffffffffffffffffffffffffffffffffffff1673ffffffffffffffffffffffffffffffffffffffff166370a08231306040518263ffffffff1660e01b8152600401808273ffffffffffffffffffffffffffffffffffffffff1673ffffffffffffffffffffffffffffffffffffffff16815260200191505060206040518083038186803b1580156103f857600080fd5b505afa15801561040c573d6000803e3d6000fd5b505050506040513d602081101561042257600080fd5b81019080805190602001909291905050509050610440816001610f3e565b506000600660009054906101000a900473ffffffffffffffffffffffffffffffffffffffff1673ffffffffffffffffffffffffffffffffffffffff166370a08231306040518263ffffffff1660e01b8152600401808273ffffffffffffffffffffffffffffffffffffffff1673ffffffffffffffffffffffffffffffffffffffff16815260200191505060206040518083038186803b1580156104e257600080fd5b505afa1580156104f6573d6000803e3d6000fd5b505050506040513d602081101561050c57600080fd5b8101908080519060200190929190505050905060006105388460030154836110c390919063ffffffff16565b905080846004018190555061059581600160003373ffffffffffffffffffffffffffffffffffffffff1673ffffffffffffffffffffffffffffffffffffffff1681526020019081526020016000205461110d90919063ffffffff16565b600160003373ffffffffffffffffffffffffffffffffffffffff1673ffffffffffffffffffffffffffffffffffffffff168152602001908152602001600020819055506000600160003373ffffffffffffffffffffffffffffffffffffffff1673ffffffffffffffffffffffffffffffffffffffff168152602001908152602001600020549050600660009054906101000a900473ffffffffffffffffffffffffffffffffffffffff1673ffffffffffffffffffffffffffffffffffffffff1663a9059cbb8660010160009054906101000a900473ffffffffffffffffffffffffffffffffffffffff16836040518363ffffffff1660e01b8152600401808373ffffffffffffffffffffffffffffffffffffffff1673ffffffffffffffffffffffffffffffffffffffff16815260200182815260200192505050602060405180830381600087803b1580156106e957600080fd5b505af11580156106fd573d6000803e3d6000fd5b505050506040513d602081101561071357600080fd5b81019080805190602001909291905050505061077b8560030154600160003373ffffffffffffffffffffffffffffffffffffffff1673ffffffffffffffffffffffffffffffffffffffff168152602001908152602001600020546110c390919063ffffffff16565b600160003373ffffffffffffffffffffffffffffffffffffffff1673ffffffffffffffffffffffffffffffffffffffff168152602001908152602001600020819055506001600260008760000154815260200190815260200160002060006101000a81548160ff0219169083151502179055507f0154f717e0222046b9a7127b7bc6b098ebb086c5b335538799d67ddc54c62be78560000154338760020160009054906101000a900473ffffffffffffffffffffffffffffffffffffffff1688600301548642604051808781526020018673ffffffffffffffffffffffffffffffffffffffff1673ffffffffffffffffffffffffffffffffffffffff1681526020018573ffffffffffffffffffffffffffffffffffffffff1673ffffffffffffffffffffffffffffffffffffffff168152602001848152602001838152602001828152602001965050505050505060405180910390a1505050505050565b6000600660009054906101000a900473ffffffffffffffffffffffffffffffffffffffff1673ffffffffffffffffffffffffffffffffffffffff1663095ea7b3600560009054906101000a900473ffffffffffffffffffffffffffffffffffffffff16846040518363ffffffff1660e01b8152600401808373ffffffffffffffffffffffffffffffffffffffff1673ffffffffffffffffffffffffffffffffffffffff16815260200182815260200192505050602060405180830381600087803b1580156109a657600080fd5b505af11580156109ba573d6000803e3d6000fd5b505050506040513d60208110156109d057600080fd5b8101908080519060200190929190505050506000600760009054906101000a900473ffffffffffffffffffffffffffffffffffffffff1673ffffffffffffffffffffffffffffffffffffffff1663a0712d68846040518263ffffffff1660e01b815260040180828152602001915050602060405180830381600087803b158015610a5957600080fd5b505af1158015610a6d573d6000803e3d6000fd5b505050506040513d6020811015610a8357600080fd5b8101908080519060200190929190505050905080915050919050565b60026020528060005260406000206000915054906101000a900460ff1681565b565b60006020528060005260406000206000915090508060000154908060010160009054906101000a900473ffffffffffffffffffffffffffffffffffffffff16908060020160009054906101000a900473ffffffffffffffffffffffffffffffffffffffff16908060030154908060040154908060050154905086565b6000610b55600160035461110d90919063ffffffff16565b6003819055506040518060c0016040528060035481526020013373ffffffffffffffffffffffffffffffffffffffff168152602001600560009054906101000a900473ffffffffffffffffffffffffffffffffffffffff1673ffffffffffffffffffffffffffffffffffffffff168152602001838152602001600081526020014281525060008060035481526020019081526020016000206000820151816000015560208201518160010160006101000a81548173ffffffffffffffffffffffffffffffffffffffff021916908373ffffffffffffffffffffffffffffffffffffffff16021790555060408201518160020160006101000a81548173ffffffffffffffffffffffffffffffffffffffff021916908373ffffffffffffffffffffffffffffffffffffffff160217905550606082015181600301556080820151816004015560a08201518160050155905050600660009054906101000a900473ffffffffffffffffffffffffffffffffffffffff1673ffffffffffffffffffffffffffffffffffffffff166323b872dd3330856040518463ffffffff1660e01b8152600401808473ffffffffffffffffffffffffffffffffffffffff1673ffffffffffffffffffffffffffffffffffffffff1681526020018373ffffffffffffffffffffffffffffffffffffffff1673ffffffffffffffffffffffffffffffffffffffff1681526020018281526020019350505050602060405180830381600087803b158015610d8357600080fd5b505af1158015610d97573d6000803e3d6000fd5b505050506040513d6020811015610dad57600080fd5b810190808051906020019092919050505050610e1182600160003373ffffffffffffffffffffffffffffffffffffffff1673ffffffffffffffffffffffffffffffffffffffff1681526020019081526020016000205461110d90919063ffffffff16565b600160003373ffffffffffffffffffffffffffffffffffffffff1673ffffffffffffffffffffffffffffffffffffffff168152602001908152602001600020819055506000610e5f836108d9565b90507fefd7bb4f992963087670aa168590baee24d227ff5c18ae3790ef7ec22bde627460035433600560009054906101000a900473ffffffffffffffffffffffffffffffffffffffff168642604051808681526020018573ffffffffffffffffffffffffffffffffffffffff1673ffffffffffffffffffffffffffffffffffffffff1681526020018473ffffffffffffffffffffffffffffffffffffffff1673ffffffffffffffffffffffffffffffffffffffff1681526020018381526020018281526020019550505050505060405180910390a16001915050919050565b60008060011515831515141561100557600760009054906101000a900473ffffffffffffffffffffffffffffffffffffffff1673ffffffffffffffffffffffffffffffffffffffff1663db006a75856040518263ffffffff1660e01b815260040180828152602001915050602060405180830381600087803b158015610fc357600080fd5b505af1158015610fd7573d6000803e3d6000fd5b505050506040513d6020811015610fed57600080fd5b810190808051906020019092919050505090506110b8565b600760009054906101000a900473ffffffffffffffffffffffffffffffffffffffff1673ffffffffffffffffffffffffffffffffffffffff1663852a12e3856040518263ffffffff1660e01b815260040180828152602001915050602060405180830381600087803b15801561107a57600080fd5b505af115801561108e573d6000803e3d6000fd5b505050506040513d60208110156110a457600080fd5b810190808051906020019092919050505090505b600191505092915050565b600061110583836040518060400160405280601e81526020017f536166654d6174683a207375627472616374696f6e206f766572666c6f770000815250611195565b905092915050565b60008082840190508381101561118b576040517f08c379a000000000000000000000000000000000000000000000000000000000815260040180806020018281038252601b8152602001807f536166654d6174683a206164646974696f6e206f766572666c6f77000000000081525060200191505060405180910390fd5b8091505092915050565b6000838311158290611242576040517f08c379a00000000000000000000000000000000000000000000000000000000081526004018080602001828103825283818151815260200191508051906020019080838360005b838110156112075780820151818401526020810190506111ec565b50505050905090810190601f1680156112345780820380516001836020036101000a031916815260200191505b509250505060405180910390fd5b506000838503905080915050939250505056fea265627a7a723158205a055b212929743397c59ab8da463e3b54c7a62481edd4f3f362d9c7fe09d60f64736f6c63430005100032",
  "source": "pragma solidity ^0.5.16;\r\n\r\nimport {IERC20} from \"./dependencies/OpenZeppelin/IERC20.sol\";\r\nimport {cDAI} from \"./dependencies/cDAI.sol\"; \r\nimport \"./dependencies/OpenZeppelin/SafeMath.sol\";\r\nimport \"./dependencies/Compound.sol\";\r\nimport \"./dependencies/AAVE/ILendingPool.sol\";\r\n\r\ncontract YieldAggregator {\r\n    using SafeMath for uint;\r\n\r\n    mapping(uint256 => _Deposit) public deposits;\r\n    mapping(address => uint256) public daiTokens;\r\n    mapping(uint256 => bool) public depositWithdrawn;\r\n    uint256 public depositCount;\r\n\r\n    event Deposited(\r\n        uint256 id,\r\n        address user,\r\n        address token,\r\n        uint256 amount,\r\n        uint256 timestamp\r\n    );\r\n\r\n    event Withdrawn(\r\n        uint256 id,\r\n        address user,\r\n        address token,\r\n        uint256 amount,\r\n        uint256 gain,\r\n        uint256 timestamp\r\n    );\r\n\r\n    struct _Deposit {\r\n        uint256 id;\r\n        address user;\r\n        address token;\r\n        uint256 amount;\r\n        uint256 gain;\r\n        uint256 timestamp;\r\n    }\r\n        \r\n    address daiAddress = 0x6B175474E89094C44Da98b954EedeAC495271d0F;\r\n    address cDAIAddress = 0x5d3a536E4D6DbD6114cc1Ead35777bAB948E3643;\r\n\r\n    IERC20 DAI = IERC20(daiAddress);\r\n    cDAI Compound = cDAI(cDAIAddress);\r\n\r\n    function deposit(uint _amount) public returns (bool) {\r\n                \r\n        //Create new Deposit and transfer the funds from the user account to the Smart Contract\r\n        depositCount = depositCount.add(1);\r\n        deposits[depositCount] = _Deposit(depositCount, msg.sender, cDAIAddress, _amount, 0, now);\r\n        DAI.transferFrom(msg.sender, address(this), _amount);\r\n        \r\n        //Add amount deposited to the daiToken tracker for each user\r\n        daiTokens[msg.sender] = daiTokens[msg.sender].add(_amount);\r\n\r\n        //Deposit to Compound\r\n        uint deposited = depositToCompound(_amount);\r\n\r\n       \r\n        \r\n        //Get Exchange rate of Compound\r\n        \r\n\r\n        //uint256 exchangeRateMantissa = Compound.exchangeRateCurrent();\r\n\r\n        //Get Exchange rate of AAVE \r\n\r\n        //Emit deposit event\r\n        emit Deposited(depositCount, msg.sender, cDAIAddress, _amount, now);\r\n        return true;\r\n        \r\n    }\r\n\r\n    function rebalance() public {\r\n        // Insert Code here\r\n    }\r\n\r\n    function withdraw(uint256 _id) public {\r\n\r\n        //Get initial deposit amount and current user balance\r\n        _Deposit storage _deposit = deposits[_id];\r\n        \r\n        //Get current cDAI locked in Compound by this contract\r\n        uint256 cDaiAmount = Compound.balanceOf(address(this));\r\n        //Withdraw from contract\r\n        withdrawFromCompound(cDaiAmount, true);\r\n\r\n        uint256 daiAmount = DAI.balanceOf(address(this));\r\n\r\n        //Calculate gains while locked in contract\r\n        uint256 gain = daiAmount.sub(_deposit.amount);\r\n        _deposit.gain = gain;\r\n        daiTokens[msg.sender] = daiTokens[msg.sender].add(gain);\r\n        \r\n        //Get latest amount after gains added\r\n        uint256 userBalance = daiTokens[msg.sender];\r\n        //Transfer back to original account (principal plus gains)\r\n        DAI.transfer(_deposit.user, userBalance);\r\n\r\n        //Update trackers to account for funds withdrawn  \r\n        daiTokens[msg.sender] = daiTokens[msg.sender].sub(_deposit.amount);\r\n        depositWithdrawn[_deposit.id] = true;\r\n\r\n        //Emit withdrawn event\r\n        emit Withdrawn(_deposit.id, msg.sender, _deposit.token, _deposit.amount, gain, now);\r\n        \r\n        //Add in any gains from different rebalance\r\n\r\n        //With draw funds from Compound or Aave\r\n        //withdrawFromCompound(userBalance, false);\r\n\r\n    }\r\n\r\n    function depositToCompound(uint256 _amount) public returns (uint) {       \r\n        //Mint cTokens\r\n        DAI.approve(cDAIAddress, _amount);\r\n        uint mintResult = Compound.mint(_amount);\r\n\r\n        return mintResult;\r\n    }\r\n\r\n    function withdrawFromCompound(uint256 _numTokensToWithdraw, bool redeemType) public returns (bool) {\r\n        uint256 redeemResult;\r\n\r\n        if (redeemType == true){\r\n            //Retrieve DAI deposited\r\n            redeemResult = Compound.redeem(_numTokensToWithdraw);\r\n        }\r\n        else\r\n        {\r\n            redeemResult = Compound.redeemUnderlying(_numTokensToWithdraw);\r\n        }\r\n\r\n        return true;\r\n    }\r\n}",
  "sourcePath": "/mnt/c/Users/alora/OneDrive/Documents/GitHub/Yield-Aggregator/src/contracts/YieldAggregator.sol",
  "compiler": {
    "name": "solc",
    "version": "0.5.16+commit.9c3226ce.Emscripten.clang"
  },
  "schemaVersion": "3.4.1",
  "updatedAt": "2021-09-23T00:15:38.205Z",
  "networkType": "ethereum",
  "devdoc": {
    "methods": {}
  },
  "userdoc": {
    "methods": {}
  }
}