{
  "contractName": "YieldAggregator",
  "abi": [
    {
      "anonymous": false,
      "inputs": [
        {
          "indexed": false,
          "internalType": "uint256",
          "name": "id",
          "type": "uint256"
        },
        {
          "indexed": false,
          "internalType": "address",
          "name": "user",
          "type": "address"
        },
        {
          "indexed": false,
          "internalType": "address",
          "name": "token",
          "type": "address"
        },
        {
          "indexed": false,
          "internalType": "uint256",
          "name": "amount",
          "type": "uint256"
        },
        {
          "indexed": false,
          "internalType": "uint256",
          "name": "timestamp",
          "type": "uint256"
        }
      ],
      "name": "Deposited",
      "type": "event"
    },
    {
      "constant": true,
      "inputs": [],
      "name": "depositCount",
      "outputs": [
        {
          "internalType": "uint256",
          "name": "",
          "type": "uint256"
        }
      ],
      "payable": false,
      "stateMutability": "view",
      "type": "function"
    },
    {
      "constant": true,
      "inputs": [
        {
          "internalType": "uint256",
          "name": "",
          "type": "uint256"
        }
      ],
      "name": "deposits",
      "outputs": [
        {
          "internalType": "uint256",
          "name": "id",
          "type": "uint256"
        },
        {
          "internalType": "address",
          "name": "user",
          "type": "address"
        },
        {
          "internalType": "address",
          "name": "token",
          "type": "address"
        },
        {
          "internalType": "uint256",
          "name": "amount",
          "type": "uint256"
        },
        {
          "internalType": "uint256",
          "name": "timestamp",
          "type": "uint256"
        }
      ],
      "payable": false,
      "stateMutability": "view",
      "type": "function"
    },
    {
      "constant": true,
      "inputs": [
        {
          "internalType": "address",
          "name": "userAddress",
          "type": "address"
        }
      ],
      "name": "getDAIBalance",
      "outputs": [
        {
          "internalType": "uint256",
          "name": "",
          "type": "uint256"
        }
      ],
      "payable": false,
      "stateMutability": "view",
      "type": "function"
    },
    {
      "constant": true,
      "inputs": [
        {
          "internalType": "address",
          "name": "userAddress",
          "type": "address"
        }
      ],
      "name": "getCompoundBalance",
      "outputs": [
        {
          "internalType": "uint256",
          "name": "",
          "type": "uint256"
        }
      ],
      "payable": false,
      "stateMutability": "view",
      "type": "function"
    },
    {
      "constant": false,
      "inputs": [
        {
          "internalType": "uint256",
          "name": "_amount",
          "type": "uint256"
        }
      ],
      "name": "deposit",
      "outputs": [
        {
          "internalType": "bool",
          "name": "",
          "type": "bool"
        }
      ],
      "payable": false,
      "stateMutability": "nonpayable",
      "type": "function"
    },
    {
      "constant": false,
      "inputs": [],
      "name": "rebalance",
      "outputs": [],
      "payable": false,
      "stateMutability": "nonpayable",
      "type": "function"
    },
    {
      "constant": false,
      "inputs": [],
      "name": "withdraw",
      "outputs": [],
      "payable": false,
      "stateMutability": "nonpayable",
      "type": "function"
    },
    {
      "constant": false,
      "inputs": [
        {
          "internalType": "uint256",
          "name": "_amount",
          "type": "uint256"
        }
      ],
      "name": "depositToCompound",
      "outputs": [
        {
          "internalType": "uint256",
          "name": "",
          "type": "uint256"
        }
      ],
      "payable": false,
      "stateMutability": "nonpayable",
      "type": "function"
    },
    {
      "constant": false,
      "inputs": [
        {
          "internalType": "uint256",
          "name": "_numTokensToWithdraw",
          "type": "uint256"
        },
        {
          "internalType": "bool",
          "name": "redeemType",
          "type": "bool"
        }
      ],
      "name": "withdrawFromCompound",
      "outputs": [
        {
          "internalType": "bool",
          "name": "",
          "type": "bool"
        }
      ],
      "payable": false,
      "stateMutability": "nonpayable",
      "type": "function"
    }
  ],
  "bytecode": "0x6080604052736b175474e89094c44da98b954eedeac495271d0f600260006101000a81548173ffffffffffffffffffffffffffffffffffffffff021916908373ffffffffffffffffffffffffffffffffffffffff160217905550735d3a536e4d6dbd6114cc1ead35777bab948e3643600360006101000a81548173ffffffffffffffffffffffffffffffffffffffff021916908373ffffffffffffffffffffffffffffffffffffffff160217905550600260009054906101000a900473ffffffffffffffffffffffffffffffffffffffff16600460006101000a81548173ffffffffffffffffffffffffffffffffffffffff021916908373ffffffffffffffffffffffffffffffffffffffff160217905550600360009054906101000a900473ffffffffffffffffffffffffffffffffffffffff16600560006101000a81548173ffffffffffffffffffffffffffffffffffffffff021916908373ffffffffffffffffffffffffffffffffffffffff16021790555034801561018057600080fd5b50610cbc806101906000396000f3fe608060405234801561001057600080fd5b50600436106100935760003560e01c80633ccfd60b116100665780633ccfd60b146101a85780637d7c2a1c146101b2578063b02c43d0146101bc578063b6b55f2514610272578063d174f2ac146102b857610093565b806324cc246a146100985780632dfdf0b5146100f0578063300c09821461010e57806335ea1da914610150575b600080fd5b6100da600480360360208110156100ae57600080fd5b81019080803573ffffffffffffffffffffffffffffffffffffffff16906020019092919050505061030a565b6040518082815260200191505060405180910390f35b6100f86103f2565b6040518082815260200191505060405180910390f35b61013a6004803603602081101561012457600080fd5b81019080803590602001909291905050506103f8565b6040518082815260200191505060405180910390f35b6101926004803603602081101561016657600080fd5b81019080803573ffffffffffffffffffffffffffffffffffffffff1690602001909291905050506105be565b6040518082815260200191505060405180910390f35b6101b06106a6565b005b6101ba6106a8565b005b6101e8600480360360208110156101d257600080fd5b81019080803590602001909291905050506106aa565b604051808681526020018573ffffffffffffffffffffffffffffffffffffffff1673ffffffffffffffffffffffffffffffffffffffff1681526020018473ffffffffffffffffffffffffffffffffffffffff1673ffffffffffffffffffffffffffffffffffffffff1681526020018381526020018281526020019550505050505060405180910390f35b61029e6004803603602081101561028857600080fd5b8101908080359060200190929190505050610720565b604051808215151515815260200191505060405180910390f35b6102f0600480360360408110156102ce57600080fd5b8101908080359060200190929190803515159060200190929190505050610a7a565b604051808215151515815260200191505060405180910390f35b600080600460009054906101000a900473ffffffffffffffffffffffffffffffffffffffff1673ffffffffffffffffffffffffffffffffffffffff166370a08231846040518263ffffffff1660e01b8152600401808273ffffffffffffffffffffffffffffffffffffffff1673ffffffffffffffffffffffffffffffffffffffff16815260200191505060206040518083038186803b1580156103ac57600080fd5b505afa1580156103c0573d6000803e3d6000fd5b505050506040513d60208110156103d657600080fd5b8101908080519060200190929190505050905080915050919050565b60015481565b6000600460009054906101000a900473ffffffffffffffffffffffffffffffffffffffff1673ffffffffffffffffffffffffffffffffffffffff1663095ea7b3600360009054906101000a900473ffffffffffffffffffffffffffffffffffffffff16846040518363ffffffff1660e01b8152600401808373ffffffffffffffffffffffffffffffffffffffff1673ffffffffffffffffffffffffffffffffffffffff16815260200182815260200192505050602060405180830381600087803b1580156104c557600080fd5b505af11580156104d9573d6000803e3d6000fd5b505050506040513d60208110156104ef57600080fd5b8101908080519060200190929190505050506000600560009054906101000a900473ffffffffffffffffffffffffffffffffffffffff1673ffffffffffffffffffffffffffffffffffffffff1663a0712d68846040518263ffffffff1660e01b815260040180828152602001915050602060405180830381600087803b15801561057857600080fd5b505af115801561058c573d6000803e3d6000fd5b505050506040513d60208110156105a257600080fd5b8101908080519060200190929190505050905080915050919050565b600080600560009054906101000a900473ffffffffffffffffffffffffffffffffffffffff1673ffffffffffffffffffffffffffffffffffffffff166370a08231846040518263ffffffff1660e01b8152600401808273ffffffffffffffffffffffffffffffffffffffff1673ffffffffffffffffffffffffffffffffffffffff16815260200191505060206040518083038186803b15801561066057600080fd5b505afa158015610674573d6000803e3d6000fd5b505050506040513d602081101561068a57600080fd5b8101908080519060200190929190505050905080915050919050565b565b565b60006020528060005260406000206000915090508060000154908060010160009054906101000a900473ffffffffffffffffffffffffffffffffffffffff16908060020160009054906101000a900473ffffffffffffffffffffffffffffffffffffffff16908060030154908060040154905085565b600061073760018054610bff90919063ffffffff16565b6001819055506040518060a0016040528060015481526020013373ffffffffffffffffffffffffffffffffffffffff168152602001600360009054906101000a900473ffffffffffffffffffffffffffffffffffffffff1673ffffffffffffffffffffffffffffffffffffffff1681526020018381526020014281525060008060015481526020019081526020016000206000820151816000015560208201518160010160006101000a81548173ffffffffffffffffffffffffffffffffffffffff021916908373ffffffffffffffffffffffffffffffffffffffff16021790555060408201518160020160006101000a81548173ffffffffffffffffffffffffffffffffffffffff021916908373ffffffffffffffffffffffffffffffffffffffff1602179055506060820151816003015560808201518160040155905050600460009054906101000a900473ffffffffffffffffffffffffffffffffffffffff1673ffffffffffffffffffffffffffffffffffffffff166323b872dd3330856040518463ffffffff1660e01b8152600401808473ffffffffffffffffffffffffffffffffffffffff1673ffffffffffffffffffffffffffffffffffffffff1681526020018373ffffffffffffffffffffffffffffffffffffffff1673ffffffffffffffffffffffffffffffffffffffff1681526020018281526020019350505050602060405180830381600087803b15801561095457600080fd5b505af1158015610968573d6000803e3d6000fd5b505050506040513d602081101561097e57600080fd5b810190808051906020019092919050505050600061099b836103f8565b90507fefd7bb4f992963087670aa168590baee24d227ff5c18ae3790ef7ec22bde627460015433600360009054906101000a900473ffffffffffffffffffffffffffffffffffffffff168642604051808681526020018573ffffffffffffffffffffffffffffffffffffffff1673ffffffffffffffffffffffffffffffffffffffff1681526020018473ffffffffffffffffffffffffffffffffffffffff1673ffffffffffffffffffffffffffffffffffffffff1681526020018381526020018281526020019550505050505060405180910390a16001915050919050565b600080600115158315151415610b4157600560009054906101000a900473ffffffffffffffffffffffffffffffffffffffff1673ffffffffffffffffffffffffffffffffffffffff1663db006a75856040518263ffffffff1660e01b815260040180828152602001915050602060405180830381600087803b158015610aff57600080fd5b505af1158015610b13573d6000803e3d6000fd5b505050506040513d6020811015610b2957600080fd5b81019080805190602001909291905050509050610bf4565b600560009054906101000a900473ffffffffffffffffffffffffffffffffffffffff1673ffffffffffffffffffffffffffffffffffffffff1663852a12e3856040518263ffffffff1660e01b815260040180828152602001915050602060405180830381600087803b158015610bb657600080fd5b505af1158015610bca573d6000803e3d6000fd5b505050506040513d6020811015610be057600080fd5b810190808051906020019092919050505090505b600191505092915050565b600080828401905083811015610c7d576040517f08c379a000000000000000000000000000000000000000000000000000000000815260040180806020018281038252601b8152602001807f536166654d6174683a206164646974696f6e206f766572666c6f77000000000081525060200191505060405180910390fd5b809150509291505056fea265627a7a7231582072f5dc78ba2075bbed36930a536ad5b2877642a12c0c0f1077e6f563981d4df064736f6c63430005100032",
  "source": "pragma solidity ^0.5.16;\r\n\r\nimport {IERC20} from \"./dependencies/OpenZeppelin/IERC20.sol\";\r\nimport {cDAI} from \"./dependencies/cDAI.sol\"; \r\nimport \"./dependencies/OpenZeppelin/SafeMath.sol\";\r\nimport \"./dependencies/Compound.sol\";\r\nimport \"./dependencies/AAVE/ILendingPool.sol\";\r\n\r\ncontract YieldAggregator {\r\n    using SafeMath for uint;\r\n\r\n    mapping(uint256 => _Deposit) public deposits;\r\n    uint256 public depositCount;\r\n\r\n    event Deposited(\r\n        uint256 id,\r\n        address user,\r\n        address token,\r\n        uint256 amount,\r\n        uint256 timestamp\r\n    );\r\n\r\n    struct _Deposit {\r\n        uint256 id;\r\n        address user;\r\n        address token;\r\n        uint256 amount;\r\n        uint256 timestamp;\r\n    }\r\n        \r\n    address daiAddress = 0x6B175474E89094C44Da98b954EedeAC495271d0F;\r\n    address cDAIAddress = 0x5d3a536E4D6DbD6114cc1Ead35777bAB948E3643;\r\n\r\n    IERC20 DAI = IERC20(daiAddress);\r\n    cDAI Compound = cDAI(cDAIAddress);\r\n\r\n    //Function to get the current DAI balance of the user\r\n    function getDAIBalance(address userAddress) external view returns (uint256) {\r\n        uint256 result = DAI.balanceOf(userAddress);\r\n        return (result);\r\n    }\r\n\r\n    function getCompoundBalance(address userAddress) external view returns (uint256) {\r\n        uint256 result = Compound.balanceOf(userAddress);\r\n        return (result);\r\n    }\r\n\r\n    function deposit(uint _amount) public returns (bool) {\r\n                \r\n        depositCount = depositCount.add(1);\r\n        deposits[depositCount] = _Deposit(depositCount, msg.sender, cDAIAddress, _amount, now);\r\n        DAI.transferFrom(msg.sender, address(this), _amount);\r\n        uint deposited = depositToCompound(_amount);\r\n\r\n       \r\n        \r\n        //Get Exchange rate of Compound\r\n        \r\n\r\n        //uint256 exchangeRateMantissa = Compound.exchangeRateCurrent();\r\n\r\n        //Get Exchange rate of AAVE \r\n\r\n        //Emit deposit event\r\n        emit Deposited(depositCount, msg.sender, cDAIAddress, _amount, now);\r\n        return true;\r\n        \r\n    }\r\n\r\n    function rebalance() public {\r\n        // Insert Code here\r\n    }\r\n\r\n    function withdraw() public {\r\n\r\n    }\r\n\r\n    function depositToCompound(uint256 _amount) public returns (uint) {       \r\n        //Mint cTokens\r\n        DAI.approve(cDAIAddress, _amount);\r\n        uint mintResult = Compound.mint(_amount);\r\n\r\n        return mintResult;\r\n    }\r\n\r\n    function withdrawFromCompound(uint256 _numTokensToWithdraw, bool redeemType) public returns (bool) {\r\n        uint256 redeemResult;\r\n\r\n        if (redeemType == true){\r\n            //Retrieve DAI deposited\r\n            redeemResult = Compound.redeem(_numTokensToWithdraw);\r\n        }\r\n        else\r\n        {\r\n            redeemResult = Compound.redeemUnderlying(_numTokensToWithdraw);\r\n        }\r\n\r\n        return true;\r\n    }\r\n}",
  "sourcePath": "/mnt/c/Users/alora/OneDrive/Documents/GitHub/Yield-Aggregator/src/contracts/YieldAggregator.sol",
  "compiler": {
    "name": "solc",
    "version": "0.5.16+commit.9c3226ce.Emscripten.clang"
  },
  "schemaVersion": "3.4.1",
  "updatedAt": "2021-09-22T06:45:28.648Z",
  "networkType": "ethereum",
  "devdoc": {
    "methods": {}
  },
  "userdoc": {
    "methods": {}
  }
}