{
  "contractName": "YieldAggregator",
  "abi": [
    {
      "anonymous": false,
      "inputs": [
        {
          "indexed": false,
          "internalType": "uint256",
          "name": "id",
          "type": "uint256"
        },
        {
          "indexed": false,
          "internalType": "address",
          "name": "user",
          "type": "address"
        },
        {
          "indexed": false,
          "internalType": "address",
          "name": "token",
          "type": "address"
        },
        {
          "indexed": false,
          "internalType": "uint256",
          "name": "amount",
          "type": "uint256"
        },
        {
          "indexed": false,
          "internalType": "uint256",
          "name": "timestamp",
          "type": "uint256"
        }
      ],
      "name": "Deposited",
      "type": "event"
    },
    {
      "anonymous": false,
      "inputs": [
        {
          "indexed": false,
          "internalType": "address",
          "name": "user",
          "type": "address"
        },
        {
          "indexed": false,
          "internalType": "address",
          "name": "token",
          "type": "address"
        },
        {
          "indexed": false,
          "internalType": "uint256",
          "name": "amount",
          "type": "uint256"
        },
        {
          "indexed": false,
          "internalType": "uint256",
          "name": "timestamp",
          "type": "uint256"
        }
      ],
      "name": "Rebalanced",
      "type": "event"
    },
    {
      "anonymous": false,
      "inputs": [
        {
          "indexed": false,
          "internalType": "uint256",
          "name": "id",
          "type": "uint256"
        },
        {
          "indexed": false,
          "internalType": "address",
          "name": "user",
          "type": "address"
        },
        {
          "indexed": false,
          "internalType": "address",
          "name": "token",
          "type": "address"
        },
        {
          "indexed": false,
          "internalType": "uint256",
          "name": "amount",
          "type": "uint256"
        },
        {
          "indexed": false,
          "internalType": "uint256",
          "name": "gain",
          "type": "uint256"
        },
        {
          "indexed": false,
          "internalType": "uint256",
          "name": "timestamp",
          "type": "uint256"
        }
      ],
      "name": "Withdrawn",
      "type": "event"
    },
    {
      "constant": true,
      "inputs": [
        {
          "internalType": "address",
          "name": "",
          "type": "address"
        }
      ],
      "name": "daiTokens",
      "outputs": [
        {
          "internalType": "uint256",
          "name": "",
          "type": "uint256"
        }
      ],
      "payable": false,
      "stateMutability": "view",
      "type": "function"
    },
    {
      "constant": true,
      "inputs": [],
      "name": "depositCount",
      "outputs": [
        {
          "internalType": "uint256",
          "name": "",
          "type": "uint256"
        }
      ],
      "payable": false,
      "stateMutability": "view",
      "type": "function"
    },
    {
      "constant": true,
      "inputs": [
        {
          "internalType": "uint256",
          "name": "",
          "type": "uint256"
        }
      ],
      "name": "depositLocation",
      "outputs": [
        {
          "internalType": "bool",
          "name": "",
          "type": "bool"
        }
      ],
      "payable": false,
      "stateMutability": "view",
      "type": "function"
    },
    {
      "constant": true,
      "inputs": [
        {
          "internalType": "uint256",
          "name": "",
          "type": "uint256"
        }
      ],
      "name": "depositWithdrawn",
      "outputs": [
        {
          "internalType": "bool",
          "name": "",
          "type": "bool"
        }
      ],
      "payable": false,
      "stateMutability": "view",
      "type": "function"
    },
    {
      "constant": true,
      "inputs": [
        {
          "internalType": "uint256",
          "name": "",
          "type": "uint256"
        }
      ],
      "name": "deposits",
      "outputs": [
        {
          "internalType": "uint256",
          "name": "id",
          "type": "uint256"
        },
        {
          "internalType": "address",
          "name": "user",
          "type": "address"
        },
        {
          "internalType": "address",
          "name": "token",
          "type": "address"
        },
        {
          "internalType": "uint256",
          "name": "amount",
          "type": "uint256"
        },
        {
          "internalType": "uint256",
          "name": "gain",
          "type": "uint256"
        },
        {
          "internalType": "uint256",
          "name": "timestamp",
          "type": "uint256"
        }
      ],
      "payable": false,
      "stateMutability": "view",
      "type": "function"
    },
    {
      "constant": false,
      "inputs": [
        {
          "internalType": "uint256",
          "name": "_amount",
          "type": "uint256"
        }
      ],
      "name": "deposit",
      "outputs": [
        {
          "internalType": "bool",
          "name": "",
          "type": "bool"
        }
      ],
      "payable": false,
      "stateMutability": "nonpayable",
      "type": "function"
    },
    {
      "constant": false,
      "inputs": [
        {
          "internalType": "uint256",
          "name": "_id",
          "type": "uint256"
        }
      ],
      "name": "rebalance",
      "outputs": [],
      "payable": false,
      "stateMutability": "nonpayable",
      "type": "function"
    },
    {
      "constant": false,
      "inputs": [
        {
          "internalType": "uint256",
          "name": "_id",
          "type": "uint256"
        }
      ],
      "name": "withdraw",
      "outputs": [],
      "payable": false,
      "stateMutability": "nonpayable",
      "type": "function"
    },
    {
      "constant": false,
      "inputs": [
        {
          "internalType": "uint256",
          "name": "_amount",
          "type": "uint256"
        }
      ],
      "name": "depositToCompound",
      "outputs": [
        {
          "internalType": "bool",
          "name": "",
          "type": "bool"
        }
      ],
      "payable": false,
      "stateMutability": "nonpayable",
      "type": "function"
    },
    {
      "constant": false,
      "inputs": [
        {
          "internalType": "bool",
          "name": "redeemType",
          "type": "bool"
        }
      ],
      "name": "withdrawFromCompound",
      "outputs": [
        {
          "internalType": "bool",
          "name": "",
          "type": "bool"
        }
      ],
      "payable": false,
      "stateMutability": "nonpayable",
      "type": "function"
    }
  ],
  "bytecode": "0x6080604052736b175474e89094c44da98b954eedeac495271d0f6000806101000a81548173ffffffffffffffffffffffffffffffffffffffff021916908373ffffffffffffffffffffffffffffffffffffffff160217905550735d3a536e4d6dbd6114cc1ead35777bab948e3643600160006101000a81548173ffffffffffffffffffffffffffffffffffffffff021916908373ffffffffffffffffffffffffffffffffffffffff160217905550737d2768de32b0b80b7a3454c06bdac94a69ddc7a9600260006101000a81548173ffffffffffffffffffffffffffffffffffffffff021916908373ffffffffffffffffffffffffffffffffffffffff16021790555073fc1e690f61efd961294b3e1ce3313fbd8aa4f85d600360006101000a81548173ffffffffffffffffffffffffffffffffffffffff021916908373ffffffffffffffffffffffffffffffffffffffff1602179055506000809054906101000a900473ffffffffffffffffffffffffffffffffffffffff16600460006101000a81548173ffffffffffffffffffffffffffffffffffffffff021916908373ffffffffffffffffffffffffffffffffffffffff160217905550600160009054906101000a900473ffffffffffffffffffffffffffffffffffffffff16600560006101000a81548173ffffffffffffffffffffffffffffffffffffffff021916908373ffffffffffffffffffffffffffffffffffffffff160217905550600260009054906101000a900473ffffffffffffffffffffffffffffffffffffffff16600660006101000a81548173ffffffffffffffffffffffffffffffffffffffff021916908373ffffffffffffffffffffffffffffffffffffffff160217905550600360009054906101000a900473ffffffffffffffffffffffffffffffffffffffff16600760006101000a81548173ffffffffffffffffffffffffffffffffffffffff021916908373ffffffffffffffffffffffffffffffffffffffff1602179055503480156102ee57600080fd5b50612425806102fe6000396000f3fe608060405234801561001057600080fd5b506004361061009e5760003560e01c80636b27cc1a116100665780636b27cc1a1461016d5780638459d33c1461019d578063b02c43d0146101cd578063b6b55f2514610202578063f4993018146102325761009e565b8063013ac2c5146100a35780632b830d27146100d35780632dfdf0b5146101035780632e1a7d4d14610121578063300c09821461013d575b600080fd5b6100bd60048036036100b89190810190611d6f565b61024e565b6040516100ca91906120c3565b60405180910390f35b6100ed60048036036100e89190810190611d98565b610266565b6040516100fa9190612066565b60405180910390f35b61010b61048f565b60405161011891906120c3565b60405180910390f35b61013b60048036036101369190810190611e14565b610495565b005b61015760048036036101529190810190611e14565b61080c565b6040516101649190612066565b60405180910390f35b61018760048036036101829190810190611e14565b610997565b6040516101949190612066565b60405180910390f35b6101b760048036036101b29190810190611e14565b6109b7565b6040516101c49190612066565b60405180910390f35b6101e760048036036101e29190810190611e14565b6109d7565b6040516101f996959493929190612192565b60405180910390f35b61021c60048036036102179190810190611e14565b610a53565b6040516102299190612066565b60405180910390f35b61024c60048036036102479190810190611e14565b610fb7565b005b60096020528060005260406000206000915090505481565b600080600560009054906101000a900473ffffffffffffffffffffffffffffffffffffffff1673ffffffffffffffffffffffffffffffffffffffff166370a08231306040518263ffffffff1660e01b81526004016102c49190611f2a565b60206040518083038186803b1580156102dc57600080fd5b505afa1580156102f0573d6000803e3d6000fd5b505050506040513d601f19601f820116820180604052506103149190810190611e3d565b90506001151583151514156103d657600560009054906101000a900473ffffffffffffffffffffffffffffffffffffffff1673ffffffffffffffffffffffffffffffffffffffff1663db006a75826040518263ffffffff1660e01b815260040161037e91906120c3565b602060405180830381600087803b15801561039857600080fd5b505af11580156103ac573d6000803e3d6000fd5b505050506040513d601f19601f820116820180604052506103d09190810190611e3d565b50610485565b600560009054906101000a900473ffffffffffffffffffffffffffffffffffffffff1673ffffffffffffffffffffffffffffffffffffffff1663852a12e3826040518263ffffffff1660e01b815260040161043191906120c3565b602060405180830381600087803b15801561044b57600080fd5b505af115801561045f573d6000803e3d6000fd5b505050506040513d601f19601f820116820180604052506104839190810190611e3d565b505b6001915050919050565b600c5481565b60006008600083815260200190815260200160002090503373ffffffffffffffffffffffffffffffffffffffff168160010160009054906101000a900473ffffffffffffffffffffffffffffffffffffffff1673ffffffffffffffffffffffffffffffffffffffff161461050857600080fd5b60011515600b60008360000154815260200190815260200160002060009054906101000a900460ff1615151415610549576105436001610266565b50610553565b610551611306565b505b61055b611407565b6105b18160030154600960003373ffffffffffffffffffffffffffffffffffffffff1673ffffffffffffffffffffffffffffffffffffffff168152602001908152602001600020546115a590919063ffffffff16565b81600401819055506000600960003373ffffffffffffffffffffffffffffffffffffffff1673ffffffffffffffffffffffffffffffffffffffff16815260200190815260200160002054905061064f81600960003373ffffffffffffffffffffffffffffffffffffffff1673ffffffffffffffffffffffffffffffffffffffff168152602001908152602001600020546115a590919063ffffffff16565b600960003373ffffffffffffffffffffffffffffffffffffffff1673ffffffffffffffffffffffffffffffffffffffff168152602001908152602001600020819055506001600a60008460000154815260200190815260200160002060006101000a81548160ff021916908315150217905550600460009054906101000a900473ffffffffffffffffffffffffffffffffffffffff1673ffffffffffffffffffffffffffffffffffffffff1663a9059cbb8360010160009054906101000a900473ffffffffffffffffffffffffffffffffffffffff16836040518363ffffffff1660e01b8152600401610743929190611fc1565b602060405180830381600087803b15801561075d57600080fd5b505af1158015610771573d6000803e3d6000fd5b505050506040513d601f19601f820116820180604052506107959190810190611dc1565b507f0154f717e0222046b9a7127b7bc6b098ebb086c5b335538799d67ddc54c62be78260000154338460020160009054906101000a900473ffffffffffffffffffffffffffffffffffffffff1685600301548660040154426040516107ff96959493929190612131565b60405180910390a1505050565b6000600460009054906101000a900473ffffffffffffffffffffffffffffffffffffffff1673ffffffffffffffffffffffffffffffffffffffff1663095ea7b3600160009054906101000a900473ffffffffffffffffffffffffffffffffffffffff16846040518363ffffffff1660e01b815260040161088d929190611fc1565b602060405180830381600087803b1580156108a757600080fd5b505af11580156108bb573d6000803e3d6000fd5b505050506040513d601f19601f820116820180604052506108df9190810190611dc1565b50600560009054906101000a900473ffffffffffffffffffffffffffffffffffffffff1673ffffffffffffffffffffffffffffffffffffffff1663a0712d68836040518263ffffffff1660e01b815260040161093b91906120c3565b602060405180830381600087803b15801561095557600080fd5b505af1158015610969573d6000803e3d6000fd5b505050506040513d601f19601f8201168201806040525061098d9190810190611e3d565b5060019050919050565b600a6020528060005260406000206000915054906101000a900460ff1681565b600b6020528060005260406000206000915054906101000a900460ff1681565b60086020528060005260406000206000915090508060000154908060010160009054906101000a900473ffffffffffffffffffffffffffffffffffffffff16908060020160009054906101000a900473ffffffffffffffffffffffffffffffffffffffff16908060030154908060040154908060050154905086565b6000610a6b6001600c546115ef90919063ffffffff16565b600c81905550600460009054906101000a900473ffffffffffffffffffffffffffffffffffffffff1673ffffffffffffffffffffffffffffffffffffffff166323b872dd3330856040518463ffffffff1660e01b8152600401610ad093929190611f45565b602060405180830381600087803b158015610aea57600080fd5b505af1158015610afe573d6000803e3d6000fd5b505050506040513d601f19601f82011682018060405250610b229190810190611dc1565b50610b7582600960003373ffffffffffffffffffffffffffffffffffffffff1673ffffffffffffffffffffffffffffffffffffffff168152602001908152602001600020546115ef90919063ffffffff16565b600960003373ffffffffffffffffffffffffffffffffffffffff1673ffffffffffffffffffffffffffffffffffffffff168152602001908152602001600020819055506000610bc2611644565b90506000610bce61172b565b905080821115610dc457610be18461080c565b506001600b6000600c54815260200190815260200160002060006101000a81548160ff0219169083151502179055506040518060c00160405280600c5481526020013373ffffffffffffffffffffffffffffffffffffffff168152602001600160009054906101000a900473ffffffffffffffffffffffffffffffffffffffff1673ffffffffffffffffffffffffffffffffffffffff168152602001858152602001600081526020014281525060086000600c5481526020019081526020016000206000820151816000015560208201518160010160006101000a81548173ffffffffffffffffffffffffffffffffffffffff021916908373ffffffffffffffffffffffffffffffffffffffff16021790555060408201518160020160006101000a81548173ffffffffffffffffffffffffffffffffffffffff021916908373ffffffffffffffffffffffffffffffffffffffff160217905550606082015181600301556080820151816004015560a082015181600501559050507fefd7bb4f992963087670aa168590baee24d227ff5c18ae3790ef7ec22bde6274600c5433600160009054906101000a900473ffffffffffffffffffffffffffffffffffffffff168742604051610db79594939291906120de565b60405180910390a1610fac565b610dcd84611839565b506000600b6000600c54815260200190815260200160002060006101000a81548160ff0219169083151502179055506040518060c00160405280600c5481526020013373ffffffffffffffffffffffffffffffffffffffff168152602001600260009054906101000a900473ffffffffffffffffffffffffffffffffffffffff1673ffffffffffffffffffffffffffffffffffffffff168152602001858152602001600081526020014281525060086000600c5481526020019081526020016000206000820151816000015560208201518160010160006101000a81548173ffffffffffffffffffffffffffffffffffffffff021916908373ffffffffffffffffffffffffffffffffffffffff16021790555060408201518160020160006101000a81548173ffffffffffffffffffffffffffffffffffffffff021916908373ffffffffffffffffffffffffffffffffffffffff160217905550606082015181600301556080820151816004015560a082015181600501559050507fefd7bb4f992963087670aa168590baee24d227ff5c18ae3790ef7ec22bde6274600c5433600260009054906101000a900473ffffffffffffffffffffffffffffffffffffffff168742604051610fa39594939291906120de565b60405180910390a15b600192505050919050565b60006008600083815260200190815260200160002090503373ffffffffffffffffffffffffffffffffffffffff168160010160009054906101000a900473ffffffffffffffffffffffffffffffffffffffff1673ffffffffffffffffffffffffffffffffffffffff161461102a57600080fd5b6000611034611644565b9050600061104061172b565b90508082118015611076575060011515600b600086815260200190815260200160002060009054906101000a900460ff16151514155b156111a057611083611306565b5061108c611407565b6110d4600960003373ffffffffffffffffffffffffffffffffffffffff1673ffffffffffffffffffffffffffffffffffffffff1681526020019081526020016000205461080c565b506001600b600086815260200190815260200160002060006101000a81548160ff0219169083151502179055507f81a143d873eb13ec2d7efc6f49d2ce680716e4d295f3340c68e601c317fb159533600160009054906101000a900473ffffffffffffffffffffffffffffffffffffffff16600960003373ffffffffffffffffffffffffffffffffffffffff1673ffffffffffffffffffffffffffffffffffffffff16815260200190815260200160002054426040516111979493929190611f7c565b60405180910390a15b81811180156111d4575060001515600b600086815260200190815260200160002060009054906101000a900460ff16151514155b15611300576111e36000610266565b506111ec611407565b611234600960003373ffffffffffffffffffffffffffffffffffffffff1673ffffffffffffffffffffffffffffffffffffffff16815260200190815260200160002054611839565b506000600b600086815260200190815260200160002060006101000a81548160ff0219169083151502179055507f81a143d873eb13ec2d7efc6f49d2ce680716e4d295f3340c68e601c317fb159533600260009054906101000a900473ffffffffffffffffffffffffffffffffffffffff16600960003373ffffffffffffffffffffffffffffffffffffffff1673ffffffffffffffffffffffffffffffffffffffff16815260200190815260200160002054426040516112f79493929190611f7c565b60405180910390a15b50505050565b6000807fffffffffffffffffffffffffffffffffffffffffffffffffffffffffffffffff9050600660009054906101000a900473ffffffffffffffffffffffffffffffffffffffff1673ffffffffffffffffffffffffffffffffffffffff166369328dec6000809054906101000a900473ffffffffffffffffffffffffffffffffffffffff1683306040518463ffffffff1660e01b81526004016113ac93929190611fea565b602060405180830381600087803b1580156113c657600080fd5b505af11580156113da573d6000803e3d6000fd5b505050506040513d601f19601f820116820180604052506113fe9190810190611e3d565b50600191505090565b6000600460009054906101000a900473ffffffffffffffffffffffffffffffffffffffff1673ffffffffffffffffffffffffffffffffffffffff166370a08231306040518263ffffffff1660e01b81526004016114649190611f2a565b60206040518083038186803b15801561147c57600080fd5b505afa158015611490573d6000803e3d6000fd5b505050506040513d601f19601f820116820180604052506114b49190810190611e3d565b9050600061150a600960003373ffffffffffffffffffffffffffffffffffffffff1673ffffffffffffffffffffffffffffffffffffffff16815260200190815260200160002054836115a590919063ffffffff16565b905061155e81600960003373ffffffffffffffffffffffffffffffffffffffff1673ffffffffffffffffffffffffffffffffffffffff168152602001908152602001600020546115ef90919063ffffffff16565b600960003373ffffffffffffffffffffffffffffffffffffffff1673ffffffffffffffffffffffffffffffffffffffff168152602001908152602001600020819055505050565b60006115e783836040518060400160405280601e81526020017f536166654d6174683a207375627472616374696f6e206f766572666c6f7700008152506119cb565b905092915050565b60008082840190508381101561163a576040517f08c379a0000000000000000000000000000000000000000000000000000000008152600401611631906120a3565b60405180910390fd5b8091505092915050565b600080670de0b6b3a7640000905060006119aa9050600061016d9050600080600560009054906101000a900473ffffffffffffffffffffffffffffffffffffffff1673ffffffffffffffffffffffffffffffffffffffff1663ae9d70b06040518163ffffffff1660e01b8152600401602060405180830381600087803b1580156116cd57600080fd5b505af11580156116e1573d6000803e3d6000fd5b505050506040513d601f19601f820116820180604052506117059190810190611e3d565b9150606460018460018789878161171857fe5b0402010a03029050809550505050505090565b60008060006011905061173c611a26565b600660009054906101000a900473ffffffffffffffffffffffffffffffffffffffff1673ffffffffffffffffffffffffffffffffffffffff166335ea6a756000809054906101000a900473ffffffffffffffffffffffffffffffffffffffff166040518263ffffffff1660e01b81526004016117b89190611f2a565b6101806040518083038186803b1580156117d157600080fd5b505afa1580156117e5573d6000803e3d6000fd5b505050506040513d601f19601f820116820180604052506118099190810190611dea565b90508181606001516064026fffffffffffffffffffffffffffffffff168161182d57fe5b04925082935050505090565b6000600460009054906101000a900473ffffffffffffffffffffffffffffffffffffffff1673ffffffffffffffffffffffffffffffffffffffff1663095ea7b3600260009054906101000a900473ffffffffffffffffffffffffffffffffffffffff16846040518363ffffffff1660e01b81526004016118ba929190611fc1565b602060405180830381600087803b1580156118d457600080fd5b505af11580156118e8573d6000803e3d6000fd5b505050506040513d601f19601f8201168201806040525061190c9190810190611dc1565b50600660009054906101000a900473ffffffffffffffffffffffffffffffffffffffff1673ffffffffffffffffffffffffffffffffffffffff1663e8eda9df6000809054906101000a900473ffffffffffffffffffffffffffffffffffffffff16843060006040518563ffffffff1660e01b81526004016119909493929190612021565b600060405180830381600087803b1580156119aa57600080fd5b505af11580156119be573d6000803e3d6000fd5b5050505060019050919050565b6000838311158290611a13576040517f08c379a0000000000000000000000000000000000000000000000000000000008152600401611a0a9190612081565b60405180910390fd5b5060008385039050809150509392505050565b604051806101800160405280611a3a611b49565b815260200160006fffffffffffffffffffffffffffffffff16815260200160006fffffffffffffffffffffffffffffffff16815260200160006fffffffffffffffffffffffffffffffff16815260200160006fffffffffffffffffffffffffffffffff16815260200160006fffffffffffffffffffffffffffffffff168152602001600064ffffffffff168152602001600073ffffffffffffffffffffffffffffffffffffffff168152602001600073ffffffffffffffffffffffffffffffffffffffff168152602001600073ffffffffffffffffffffffffffffffffffffffff168152602001600073ffffffffffffffffffffffffffffffffffffffff168152602001600060ff1681525090565b6040518060200160405280600081525090565b600081359050611b6b81612358565b92915050565b600081519050611b8081612358565b92915050565b600081359050611b958161236f565b92915050565b600081519050611baa8161236f565b92915050565b600060208284031215611bc257600080fd5b611bcc60206121f3565b90506000611bdc84828501611d30565b60008301525092915050565b60006101808284031215611bfb57600080fd5b611c066101806121f3565b90506000611c1684828501611bb0565b6000830152506020611c2a84828501611d06565b6020830152506040611c3e84828501611d06565b6040830152506060611c5284828501611d06565b6060830152506080611c6684828501611d06565b60808301525060a0611c7a84828501611d06565b60a08301525060c0611c8e84828501611d45565b60c08301525060e0611ca284828501611b71565b60e083015250610100611cb784828501611b71565b61010083015250610120611ccd84828501611b71565b61012083015250610140611ce384828501611b71565b61014083015250610160611cf984828501611d5a565b6101608301525092915050565b600081519050611d1581612386565b92915050565b600081359050611d2a8161239d565b92915050565b600081519050611d3f8161239d565b92915050565b600081519050611d54816123b4565b92915050565b600081519050611d69816123cb565b92915050565b600060208284031215611d8157600080fd5b6000611d8f84828501611b5c565b91505092915050565b600060208284031215611daa57600080fd5b6000611db884828501611b86565b91505092915050565b600060208284031215611dd357600080fd5b6000611de184828501611b9b565b91505092915050565b60006101808284031215611dfd57600080fd5b6000611e0b84828501611be8565b91505092915050565b600060208284031215611e2657600080fd5b6000611e3484828501611d1b565b91505092915050565b600060208284031215611e4f57600080fd5b6000611e5d84828501611d30565b91505092915050565b611e6f816122cc565b82525050565b611e7e8161223c565b82525050565b611e8d8161224e565b82525050565b611e9c816122de565b82525050565b6000611ead82612220565b611eb7818561222b565b9350611ec7818560208601612314565b611ed081612347565b840191505092915050565b6000611ee8601b8361222b565b91507f536166654d6174683a206164646974696f6e206f766572666c6f7700000000006000830152602082019050919050565b611f24816122a4565b82525050565b6000602082019050611f3f6000830184611e75565b92915050565b6000606082019050611f5a6000830186611e66565b611f676020830185611e75565b611f746040830184611f1b565b949350505050565b6000608082019050611f916000830187611e66565b611f9e6020830186611e75565b611fab6040830185611f1b565b611fb86060830184611f1b565b95945050505050565b6000604082019050611fd66000830185611e75565b611fe36020830184611f1b565b9392505050565b6000606082019050611fff6000830186611e75565b61200c6020830185611f1b565b6120196040830184611e75565b949350505050565b60006080820190506120366000830187611e75565b6120436020830186611f1b565b6120506040830185611e75565b61205d6060830184611e93565b95945050505050565b600060208201905061207b6000830184611e84565b92915050565b6000602082019050818103600083015261209b8184611ea2565b905092915050565b600060208201905081810360008301526120bc81611edb565b9050919050565b60006020820190506120d86000830184611f1b565b92915050565b600060a0820190506120f36000830188611f1b565b6121006020830187611e66565b61210d6040830186611e75565b61211a6060830185611f1b565b6121276080830184611f1b565b9695505050505050565b600060c0820190506121466000830189611f1b565b6121536020830188611e66565b6121606040830187611e75565b61216d6060830186611f1b565b61217a6080830185611f1b565b61218760a0830184611f1b565b979650505050505050565b600060c0820190506121a76000830189611f1b565b6121b46020830188611e75565b6121c16040830187611e75565b6121ce6060830186611f1b565b6121db6080830185611f1b565b6121e860a0830184611f1b565b979650505050505050565b6000604051905081810181811067ffffffffffffffff8211171561221657600080fd5b8060405250919050565b600081519050919050565b600082825260208201905092915050565b600061224782612284565b9050919050565b60008115159050919050565b60006fffffffffffffffffffffffffffffffff82169050919050565b600061ffff82169050919050565b600073ffffffffffffffffffffffffffffffffffffffff82169050919050565b6000819050919050565b600064ffffffffff82169050919050565b600060ff82169050919050565b60006122d7826122f0565b9050919050565b60006122e982612276565b9050919050565b60006122fb82612302565b9050919050565b600061230d82612284565b9050919050565b60005b83811015612332578082015181840152602081019050612317565b83811115612341576000848401525b50505050565b6000601f19601f8301169050919050565b6123618161223c565b811461236c57600080fd5b50565b6123788161224e565b811461238357600080fd5b50565b61238f8161225a565b811461239a57600080fd5b50565b6123a6816122a4565b81146123b157600080fd5b50565b6123bd816122ae565b81146123c857600080fd5b50565b6123d4816122bf565b81146123df57600080fd5b5056fea365627a7a72315820ad691758bf554e709adc9b59dfa3f0ff7ead49cfb2bd8f690ed1b2f478af68c76c6578706572696d656e74616cf564736f6c63430005100040",
  "source": "pragma solidity ^0.5.16;\r\npragma experimental ABIEncoderV2;\r\n\r\nimport {IERC20} from \"./dependencies/OpenZeppelin/IERC20.sol\";\r\nimport {cDAI} from \"./dependencies/cDAI.sol\"; \r\nimport {ILendingPool} from \"./dependencies/AAVE/ILendingPool.sol\";\r\nimport {DataTypes} from './dependencies/AAVE/DataTypes.sol';\r\n//import {ProtocolData} from \"./dependencies/AAVE/AaveProtocolDataProvider.sol\";\r\n//import {ILendingPoolAddressesProvider} from \"./dependencies/AAVE/ILendingPoolAddressesProvider\";\r\nimport \"./dependencies/OpenZeppelin/SafeMath.sol\";\r\nimport \"./dependencies/Compound.sol\";\r\n\r\n\r\ncontract YieldAggregator {\r\n    using SafeMath for uint;\r\n    \r\n    //Smart Contract Integrations (DAI, cDAI-Compound, AAVE)\r\n    address DAIAddress = 0x6B175474E89094C44Da98b954EedeAC495271d0F;\r\n    address cDAIAddress = 0x5d3a536E4D6DbD6114cc1Ead35777bAB948E3643;\r\n    address AAVEAddress = 0x7d2768dE32b0b80b7a3454c06BdAc94A69DDc7A9;\r\n    address aDAIAddress = 0xfC1E690f61EFd961294b3e1Ce3313fBD8aa4f85d;\r\n    //address aProtocolDataProvider = 0x057835Ad21a177dbdd3090bB1CAE03EaCF78Fc6d;\r\n\r\n    IERC20 DAI = IERC20(DAIAddress);\r\n    cDAI Compound = cDAI(cDAIAddress);\r\n    ILendingPool AAVE = ILendingPool(AAVEAddress);\r\n    //ProtocolData AAVEDATA = ProtocolData(aProtocolDataProvider);\r\n    IERC20 aDAI = IERC20(aDAIAddress);\r\n\r\n    //Public Mappings and Counts\r\n    mapping(uint256 => _Deposit) public deposits;\r\n    mapping(address => uint256) public daiTokens;\r\n    mapping(uint256 => bool) public depositWithdrawn;\r\n    //True == Compound and False == AAVE\r\n    mapping(uint256 => bool) public depositLocation;\r\n    uint256 public depositCount;\r\n\r\n    //Contract Events\r\n    event Deposited(\r\n        uint256 id,\r\n        address user,\r\n        address token,\r\n        uint256 amount,\r\n        uint256 timestamp\r\n    );\r\n\r\n    event Rebalanced(\r\n        address user,\r\n        address token,\r\n        uint256 amount,\r\n        uint256 timestamp\r\n    );\r\n\r\n    event Withdrawn(\r\n        uint256 id,\r\n        address user,\r\n        address token,\r\n        uint256 amount,\r\n        uint256 gain,\r\n        uint256 timestamp\r\n    );\r\n    \r\n    //Contract Structs\r\n    struct _Deposit {\r\n        uint256 id;\r\n        address user;\r\n        address token;\r\n        uint256 amount;\r\n        uint256 gain;\r\n        uint256 timestamp;\r\n    }\r\n\r\n    //Contract Functions\r\n    function deposit(uint _amount) public returns (bool) {\r\n        //Create new Deposit and transfer the funds from the user account to the Smart Contract\r\n        depositCount = depositCount.add(1);\r\n        \r\n        DAI.transferFrom(msg.sender, address(this), _amount);\r\n        \r\n        //Add amount deposited to the daiToken tracker for each user\r\n        daiTokens[msg.sender] = daiTokens[msg.sender].add(_amount);\r\n\r\n        //Get Compound and AAVE Rates\r\n        uint256 compoundAPY = getCompoundAPY();\r\n        uint256 aaveAPY = getAAVEAPY();\r\n\r\n        if (compoundAPY > aaveAPY) {\r\n            depositToCompound(_amount);\r\n            depositLocation[depositCount] = true;\r\n            deposits[depositCount] = _Deposit(depositCount, msg.sender, cDAIAddress, _amount, 0, now);\r\n            emit Deposited(depositCount, msg.sender, cDAIAddress, _amount, now);\r\n        }\r\n        else\r\n        {\r\n            depositToAAVE(_amount);\r\n            depositLocation[depositCount] = false;\r\n            deposits[depositCount] = _Deposit(depositCount, msg.sender, AAVEAddress, _amount, 0, now);\r\n            emit Deposited(depositCount, msg.sender, AAVEAddress, _amount, now);\r\n        }\r\n\r\n        return true;                    \r\n    }\r\n\r\n    function rebalance(uint256 _id) public {\r\n        _Deposit storage _deposit = deposits[_id];\r\n        require(address(_deposit.user) == msg.sender);\r\n        \r\n        //Get Compound and AAVE Rates\r\n        uint256 compoundAPY = getCompoundAPY();\r\n        uint256 aaveAPY = getAAVEAPY();\r\n\r\n        if (compoundAPY > aaveAPY && depositLocation[_id] != true) {\r\n            withdrawFromAAVE();\r\n            calcGains();\r\n            depositToCompound(daiTokens[msg.sender]);\r\n            depositLocation[_id] = true;\r\n            emit Rebalanced(msg.sender, cDAIAddress, daiTokens[msg.sender], now);\r\n        }\r\n        if (aaveAPY > compoundAPY && depositLocation[_id] != false)\r\n        {   \r\n            withdrawFromCompound(false);\r\n            calcGains();\r\n            depositToAAVE(daiTokens[msg.sender]);\r\n            depositLocation[_id] = false;\r\n            emit Rebalanced(msg.sender, AAVEAddress, daiTokens[msg.sender], now);\r\n        }\r\n    }\r\n\r\n    function withdraw(uint256 _id) public {\r\n        //Get initial deposit amount and current user balance\r\n        _Deposit storage _deposit = deposits[_id];\r\n        require(address(_deposit.user) == msg.sender);\r\n                \r\n        //Withdraw from AAVE or Compound contract\r\n        if(depositLocation[_deposit.id] == true)\r\n        {\r\n            withdrawFromCompound(true);\r\n        }\r\n        else\r\n        {\r\n            withdrawFromAAVE();\r\n        }\r\n        \r\n        calcGains();\r\n        _deposit.gain = daiTokens[msg.sender].sub(_deposit.amount);\r\n\r\n        //Get latest amount after gains added\r\n        uint256 userBalance = daiTokens[msg.sender];\r\n \r\n        //Update trackers to account for funds withdrawn  \r\n        daiTokens[msg.sender] = daiTokens[msg.sender].sub(userBalance);\r\n        depositWithdrawn[_deposit.id] = true;\r\n\r\n        //Transfer back to original account (principal plus gains)\r\n        DAI.transfer(_deposit.user, userBalance);\r\n\r\n        //Emit withdrawn event\r\n        emit Withdrawn(_deposit.id, msg.sender, _deposit.token, _deposit.amount, _deposit.gain, now);\r\n\r\n    }\r\n\r\n    function calcGains() private {\r\n        \r\n        //Get DAI balance of contract after withdraw from AAVE/Compound\r\n        uint256 daiAmount = DAI.balanceOf(address(this));\r\n\r\n        //Calculate gains while locked in contract\r\n        uint256 gain = (daiAmount).sub(daiTokens[msg.sender]);\r\n\r\n        //Add in new gains to running total\r\n        daiTokens[msg.sender] = daiTokens[msg.sender].add(gain);\r\n    }\r\n\r\n    function getAAVEAPY() private view returns (uint256) {\r\n        uint256 percentDepositAPY;\r\n        uint256 RAY = 10^27;\r\n    \r\n        DataTypes.ReserveData memory aaveReserveData = AAVE.getReserveData(DAIAddress);\r\n        percentDepositAPY = 100 * aaveReserveData.currentLiquidityRate / RAY;\r\n\r\n        return percentDepositAPY;\r\n    }\r\n\r\n    function depositToAAVE(uint256 _amount) private returns (bool) {\r\n        DAI.approve(AAVEAddress, _amount);\r\n        AAVE.deposit(DAIAddress, _amount, address(this), 0);\r\n\r\n        return true;\r\n    }\r\n\r\n    function withdrawFromAAVE() private returns (bool) {\r\n        //Use Max to pull out all funds\r\n        uint256 MAX_INT = 2**256 - 1;\r\n        AAVE.withdraw(DAIAddress, MAX_INT, address(this));\r\n\r\n        return true;\r\n    }\r\n\r\n    function getCompoundAPY() private returns (uint256) {\r\n        uint256 ethMantissa = 1e18;\r\n        uint256 blocksPerDay = 6570; // 13.15 seconds per block\r\n        uint256 daysPerYear = 365;\r\n        uint256 supplyRatePerBlock;\r\n        uint256 supplyAPY;\r\n\r\n        supplyRatePerBlock = Compound.supplyRatePerBlock();\r\n        supplyAPY = ((((supplyRatePerBlock / ethMantissa * blocksPerDay) + 1) ** daysPerYear) -1) * 100;\r\n\r\n        return supplyAPY;\r\n    }\r\n\r\n    function depositToCompound(uint256 _amount) public returns (bool) {       \r\n        DAI.approve(cDAIAddress, _amount);\r\n        Compound.mint(_amount);\r\n\r\n        return true;\r\n    }\r\n\r\n    function withdrawFromCompound(bool redeemType) public returns (bool) {\r\n\r\n        uint256 cDaiAmount = Compound.balanceOf(address(this));\r\n\r\n        if (redeemType == true){\r\n            Compound.redeem(cDaiAmount);\r\n        }\r\n        else\r\n        {\r\n            Compound.redeemUnderlying(cDaiAmount);\r\n        }\r\n\r\n        return true;\r\n    }\r\n}",
  "sourcePath": "/mnt/c/Users/alora/OneDrive/Documents/GitHub/Yield-Aggregator/src/contracts/YieldAggregator.sol",
  "compiler": {
    "name": "solc",
    "version": "0.5.16+commit.9c3226ce.Emscripten.clang"
  },
  "schemaVersion": "3.4.1",
  "updatedAt": "2021-09-25T04:07:37.647Z",
  "devdoc": {
    "methods": {}
  },
  "userdoc": {
    "methods": {}
  }
}